{
  "address": "0xDc64a140Aa3E981100a9becA4E685f962f0cF6C9",
  "abi": [
    {
      "anonymous": false,
      "inputs": [
        {
          "indexed": true,
          "internalType": "address",
          "name": "previousOwner",
          "type": "address"
        },
        {
          "indexed": true,
          "internalType": "address",
          "name": "newOwner",
          "type": "address"
        }
      ],
      "name": "OwnershipTransferred",
      "type": "event"
    },
    {
      "inputs": [],
      "name": "earlyWithdrawPenalty",
      "outputs": [
        {
          "internalType": "uint256",
          "name": "",
          "type": "uint256"
        }
      ],
      "stateMutability": "view",
      "type": "function"
    },
    {
      "inputs": [],
      "name": "exchangeRouter",
      "outputs": [
        {
          "internalType": "contract IUniswapV2Router02",
          "name": "",
          "type": "address"
        }
      ],
      "stateMutability": "view",
      "type": "function"
    },
    {
      "inputs": [
        {
          "internalType": "contract IUniswapV2Router02",
          "name": "_exchangeRouter",
          "type": "address"
        },
        {
          "internalType": "address",
          "name": "_proxyAdmin",
          "type": "address"
        },
        {
          "internalType": "address",
          "name": "_saleImpl",
          "type": "address"
        },
        {
          "internalType": "address",
          "name": "_whitelistImpl",
          "type": "address"
        },
        {
          "internalType": "address",
          "name": "_treasury",
          "type": "address"
        }
      ],
      "name": "initialize",
      "outputs": [],
      "stateMutability": "nonpayable",
      "type": "function"
    },
    {
      "inputs": [
        {
          "internalType": "address",
          "name": "",
          "type": "address"
        }
      ],
      "name": "isValidSaleUpdateApprover",
      "outputs": [
        {
          "internalType": "bool",
          "name": "",
          "type": "bool"
        }
      ],
      "stateMutability": "view",
      "type": "function"
    },
    {
      "inputs": [
        {
          "internalType": "address",
          "name": "sale",
          "type": "address"
        },
        {
          "internalType": "uint256",
          "name": "raised",
          "type": "uint256"
        },
        {
          "internalType": "uint256",
          "name": "participants",
          "type": "uint256"
        }
      ],
      "name": "launch",
      "outputs": [],
      "stateMutability": "nonpayable",
      "type": "function"
    },
    {
      "inputs": [
        {
          "internalType": "address",
          "name": "",
          "type": "address"
        }
      ],
      "name": "launched",
      "outputs": [
        {
          "internalType": "bool",
          "name": "",
          "type": "bool"
        }
      ],
      "stateMutability": "view",
      "type": "function"
    },
    {
      "inputs": [],
      "name": "launchingFeeInTokenA",
      "outputs": [
        {
          "internalType": "uint256",
          "name": "",
          "type": "uint256"
        }
      ],
      "stateMutability": "view",
      "type": "function"
    },
    {
      "inputs": [],
      "name": "launchingFeeInTokenB",
      "outputs": [
        {
          "internalType": "uint256",
          "name": "",
          "type": "uint256"
        }
      ],
      "stateMutability": "view",
      "type": "function"
    },
    {
      "inputs": [],
      "name": "listingFee",
      "outputs": [
        {
          "internalType": "uint256",
          "name": "",
          "type": "uint256"
        }
      ],
      "stateMutability": "view",
      "type": "function"
    },
    {
      "inputs": [],
      "name": "maxSaleTime",
      "outputs": [
        {
          "internalType": "uint256",
          "name": "",
          "type": "uint256"
        }
      ],
      "stateMutability": "view",
      "type": "function"
    },
    {
      "inputs": [],
      "name": "minCapRatio",
      "outputs": [
        {
          "internalType": "uint256",
          "name": "",
          "type": "uint256"
        }
      ],
      "stateMutability": "view",
      "type": "function"
    },
    {
      "inputs": [],
      "name": "minLiquidityPercentage",
      "outputs": [
        {
          "internalType": "uint256",
          "name": "",
          "type": "uint256"
        }
      ],
      "stateMutability": "view",
      "type": "function"
    },
    {
      "inputs": [],
      "name": "minSaleTime",
      "outputs": [
        {
          "internalType": "uint256",
          "name": "",
          "type": "uint256"
        }
      ],
      "stateMutability": "view",
      "type": "function"
    },
    {
      "inputs": [],
      "name": "owner",
      "outputs": [
        {
          "internalType": "address",
          "name": "",
          "type": "address"
        }
      ],
      "stateMutability": "view",
      "type": "function"
    },
    {
      "inputs": [],
      "name": "proxyAdmin",
      "outputs": [
        {
          "internalType": "address",
          "name": "",
          "type": "address"
        }
      ],
      "stateMutability": "view",
      "type": "function"
    },
    {
      "inputs": [],
      "name": "reflexRouter",
      "outputs": [
        {
          "internalType": "address",
          "name": "",
          "type": "address"
        }
      ],
      "stateMutability": "view",
      "type": "function"
    },
    {
      "inputs": [],
      "name": "renounceOwnership",
      "outputs": [],
      "stateMutability": "nonpayable",
      "type": "function"
    },
    {
      "inputs": [],
      "name": "saleImpl",
      "outputs": [
        {
          "internalType": "address",
          "name": "",
          "type": "address"
        }
      ],
      "stateMutability": "view",
      "type": "function"
    },
    {
      "inputs": [
        {
          "internalType": "uint256",
          "name": "",
          "type": "uint256"
        }
      ],
      "name": "saleUpdateApprovers",
      "outputs": [
        {
          "internalType": "address",
          "name": "",
          "type": "address"
        }
      ],
      "stateMutability": "view",
      "type": "function"
    },
    {
      "inputs": [
        {
          "internalType": "contract IUniswapV2Router02",
          "name": "_exchangeRouter",
          "type": "address"
        }
      ],
      "name": "setExchangeRouter",
      "outputs": [],
      "stateMutability": "nonpayable",
      "type": "function"
    },
    {
      "inputs": [
        {
          "internalType": "uint256",
          "name": "_launchingFee",
          "type": "uint256"
        }
      ],
      "name": "setLaunchingFeeInTokenA",
      "outputs": [],
      "stateMutability": "nonpayable",
      "type": "function"
    },
    {
      "inputs": [
        {
          "internalType": "uint256",
          "name": "_launchingFee",
          "type": "uint256"
        }
      ],
      "name": "setLaunchingFeeInTokenB",
      "outputs": [],
      "stateMutability": "nonpayable",
      "type": "function"
    },
    {
      "inputs": [
        {
          "internalType": "uint256",
          "name": "_listingFee",
          "type": "uint256"
        }
      ],
      "name": "setListingFee",
      "outputs": [],
      "stateMutability": "nonpayable",
      "type": "function"
    },
    {
      "inputs": [
        {
          "internalType": "uint256",
          "name": "_maxSaleTime",
          "type": "uint256"
        }
      ],
      "name": "setMaximumSaleTime",
      "outputs": [],
      "stateMutability": "nonpayable",
      "type": "function"
    },
    {
      "inputs": [
        {
          "internalType": "uint256",
          "name": "_minimumCapRatio",
          "type": "uint256"
        }
      ],
      "name": "setMinimumCapRatio",
      "outputs": [],
      "stateMutability": "nonpayable",
      "type": "function"
    },
    {
      "inputs": [
        {
          "internalType": "uint256",
          "name": "_liquidityPercentage",
          "type": "uint256"
        }
      ],
      "name": "setMinimumLiquidityPercentage",
      "outputs": [],
      "stateMutability": "nonpayable",
      "type": "function"
    },
    {
      "inputs": [
        {
          "internalType": "uint256",
          "name": "_minSaleTime",
          "type": "uint256"
        }
      ],
      "name": "setMinimumSaleTime",
      "outputs": [],
      "stateMutability": "nonpayable",
      "type": "function"
    },
    {
      "inputs": [
        {
          "internalType": "address",
          "name": "_proxyAdmin",
          "type": "address"
        }
      ],
      "name": "setProxyAdmin",
      "outputs": [],
      "stateMutability": "nonpayable",
      "type": "function"
    },
    {
      "inputs": [
        {
          "internalType": "address",
          "name": "_reflexRouter",
          "type": "address"
        }
      ],
      "name": "setReflexRouter",
      "outputs": [],
      "stateMutability": "nonpayable",
      "type": "function"
    },
    {
      "inputs": [
        {
          "internalType": "address",
          "name": "_saleImpl",
          "type": "address"
        }
      ],
      "name": "setSaleImpl",
      "outputs": [],
      "stateMutability": "nonpayable",
      "type": "function"
    },
    {
      "inputs": [
        {
          "internalType": "address",
          "name": "_approver",
          "type": "address"
        },
        {
          "internalType": "bool",
          "name": "_allowance",
          "type": "bool"
        }
      ],
      "name": "setSaleUpdateApprover",
      "outputs": [],
      "stateMutability": "nonpayable",
      "type": "function"
    },
    {
      "inputs": [
        {
          "internalType": "uint256",
          "name": "_amount",
          "type": "uint256"
        }
      ],
      "name": "setTotalParticipants",
      "outputs": [],
      "stateMutability": "nonpayable",
      "type": "function"
    },
    {
      "inputs": [
        {
          "internalType": "uint256",
          "name": "_amount",
          "type": "uint256"
        }
      ],
      "name": "setTotalProjects",
      "outputs": [],
      "stateMutability": "nonpayable",
      "type": "function"
    },
    {
      "inputs": [
        {
          "internalType": "uint256",
          "name": "_amount",
          "type": "uint256"
        }
      ],
      "name": "setTotalRaised",
      "outputs": [],
      "stateMutability": "nonpayable",
      "type": "function"
    },
    {
      "inputs": [
        {
          "internalType": "address",
          "name": "_treasury",
          "type": "address"
        }
      ],
      "name": "setTreasury",
      "outputs": [],
      "stateMutability": "nonpayable",
      "type": "function"
    },
    {
      "inputs": [
        {
          "internalType": "address",
          "name": "_whitelistImpl",
          "type": "address"
        }
      ],
      "name": "setWhitelistImpl",
      "outputs": [],
      "stateMutability": "nonpayable",
      "type": "function"
    },
    {
      "inputs": [],
      "name": "totalParticipants",
      "outputs": [
        {
          "internalType": "uint256",
          "name": "",
          "type": "uint256"
        }
      ],
      "stateMutability": "view",
      "type": "function"
    },
    {
      "inputs": [],
      "name": "totalProjects",
      "outputs": [
        {
          "internalType": "uint256",
          "name": "",
          "type": "uint256"
        }
      ],
      "stateMutability": "view",
      "type": "function"
    },
    {
      "inputs": [],
      "name": "totalRaised",
      "outputs": [
        {
          "internalType": "uint256",
          "name": "",
          "type": "uint256"
        }
      ],
      "stateMutability": "view",
      "type": "function"
    },
    {
      "inputs": [
        {
          "internalType": "address",
          "name": "newOwner",
          "type": "address"
        }
      ],
      "name": "transferOwnership",
      "outputs": [],
      "stateMutability": "nonpayable",
      "type": "function"
    },
    {
      "inputs": [],
      "name": "treasury",
      "outputs": [
        {
          "internalType": "address",
          "name": "",
          "type": "address"
        }
      ],
      "stateMutability": "view",
      "type": "function"
    },
    {
      "inputs": [
        {
          "internalType": "uint256",
          "name": "soft",
          "type": "uint256"
        },
        {
          "internalType": "uint256",
          "name": "hard",
          "type": "uint256"
        },
        {
          "internalType": "uint256",
          "name": "liquidity",
          "type": "uint256"
        },
        {
          "internalType": "uint256",
          "name": "start",
          "type": "uint256"
        },
        {
          "internalType": "uint256",
          "name": "end",
          "type": "uint256"
        }
      ],
      "name": "validate",
      "outputs": [],
      "stateMutability": "view",
      "type": "function"
    },
    {
      "inputs": [],
      "name": "whitelistImpl",
      "outputs": [
        {
          "internalType": "address",
          "name": "",
          "type": "address"
        }
      ],
      "stateMutability": "view",
      "type": "function"
    }
  ],
  "transactionHash": "0x37d7800894516c1a4326c9b7c9120beb5fe53e58056d8582ad0145891a5c99d5",
  "args": [],
  "numDeployments": 1,
  "solcInputHash": "5557f0662e7a6be36cb10ab616f626fc",
  "bytecode": "0x608060405234801561001057600080fd5b50611817806100206000396000f3fe608060405234801561001057600080fd5b50600436106102e95760003560e01c8063838b7ccb11610191578063ca689a0e116100e3578063eea2127411610097578063f2fde38b11610071578063f2fde38b146105c8578063f718901a146105db578063fe631e08146105ee57600080fd5b8063eea2127414610599578063f07aac90146105ac578063f0f44260146105b557600080fd5b8063d29004d9116100c8578063d29004d914610574578063e1d03ecf1461057d578063e6fd885f1461059057600080fd5b8063ca689a0e14610548578063d03915b21461055157600080fd5b80639ab9c42511610145578063a7b499331161011f578063a7b4993314610519578063baf171161461052c578063c5c4744c1461053f57600080fd5b80639ab9c425146104f45780639c361e4e14610507578063a26dbf261461051057600080fd5b80638da5cb5b116101765780638da5cb5b146104c7578063916923a3146104d857806393ef0e13146104e157600080fd5b8063838b7ccb146104a1578063864dcc6e146104b457600080fd5b80633e47158c1161024a57806365c12c44116101fe578063715018a6116101d8578063715018a61461047d57806371aedf031461048557806374982e621461049857600080fd5b806365c12c441461044e5780636a1b7ecc146104615780636b3c19a51461046a57600080fd5b806347c026611161022f57806347c02661146104155780635fe7aa501461042857806361d027b31461043b57600080fd5b80633e47158c146103eb57806343a42e5c146103fe57600080fd5b80631cb85818116102a15780632cb38d79116102865780632cb38d791461039257806330b5c933146103a55780633523ba74146103d857600080fd5b80631cb858181461036c5780632b6a2ad61461037f57600080fd5b80631459457a116102d25780631459457a146103335780631953f4b2146103465780631c5d1cd71461035957600080fd5b80630238c6da146102ee578063131dbd091461031e575b600080fd5b607454610301906001600160a01b031681565b6040516001600160a01b0390911681526020015b60405180910390f35b61033161032c3660046115a0565b610601565b005b6103316103413660046115ce565b610653565b6103316103543660046115a0565b61079a565b6103316103673660046115a0565b6107e7565b607254610301906001600160a01b031681565b61033161038d3660046115a0565b610834565b6103316103a03660046115a0565b610881565b6103c86103b336600461163f565b60786020526000908152604090205460ff1681565b6040519015158152602001610315565b6103316103e63660046115a0565b6108ce565b607554610301906001600160a01b031681565b61040760685481565b604051908152602001610315565b61033161042336600461163f565b61091b565b6103316104363660046115a0565b610985565b607654610301906001600160a01b031681565b61033161045c36600461163f565b6109d2565b61040760655481565b61033161047836600461163f565b610a3c565b610331610aa6565b6103316104933660046115a0565b610afa565b61040760665481565b6103316104af36600461163f565b610b47565b6103316104c236600461163f565b610bb1565b6033546001600160a01b0316610301565b610407606a5481565b6103316104ef3660046115a0565b610c1b565b61033161050236600461165c565b610c68565b610407606e5481565b610407606f5481565b6103316105273660046115a0565b610d98565b607354610301906001600160a01b031681565b610407606d5481565b610407606b5481565b6103c861055f36600461163f565b60706020526000908152604090205460ff1681565b610407606c5481565b607154610301906001600160a01b031681565b61040760675481565b6103316105a736600461169a565b610de5565b61040760695481565b6103316105c336600461163f565b610f0b565b6103316105d636600461163f565b610f75565b6103016105e93660046115a0565b611045565b6103316105fc3660046116cf565b61106f565b6033546001600160a01b0316331461064e5760405162461bcd60e51b815260206004820181905260248201526000805160206117c283398151915260448201526064015b60405180910390fd5b606555565b600054610100900460ff168061066c575060005460ff16155b6106cf5760405162461bcd60e51b815260206004820152602e60248201527f496e697469616c697a61626c653a20636f6e747261637420697320616c72656160448201526d191e481a5b9a5d1a585b1a5e995960921b6064820152608401610645565b600054610100900460ff161580156106f1576000805461ffff19166101011790555b6106f96112fd565b607280546001600160a01b03199081166001600160a01b038981169190911790925560738054821687841617905560748054821686841617905560758054821688841617905560768054909116918416919091179055670de0b6b3a764000060655560fa606655609660675561138860688190556069556000606a819055606b556103e8606c558015610792576000805461ff00191690555b505050505050565b6033546001600160a01b031633146107e25760405162461bcd60e51b815260206004820181905260248201526000805160206117c28339815191526044820152606401610645565b606655565b6033546001600160a01b0316331461082f5760405162461bcd60e51b815260206004820181905260248201526000805160206117c28339815191526044820152606401610645565b606a55565b6033546001600160a01b0316331461087c5760405162461bcd60e51b815260206004820181905260248201526000805160206117c28339815191526044820152606401610645565b606f55565b6033546001600160a01b031633146108c95760405162461bcd60e51b815260206004820181905260248201526000805160206117c28339815191526044820152606401610645565b606855565b6033546001600160a01b031633146109165760405162461bcd60e51b815260206004820181905260248201526000805160206117c28339815191526044820152606401610645565b606d55565b6033546001600160a01b031633146109635760405162461bcd60e51b815260206004820181905260248201526000805160206117c28339815191526044820152606401610645565b607580546001600160a01b0319166001600160a01b0392909216919091179055565b6033546001600160a01b031633146109cd5760405162461bcd60e51b815260206004820181905260248201526000805160206117c28339815191526044820152606401610645565b606955565b6033546001600160a01b03163314610a1a5760405162461bcd60e51b815260206004820181905260248201526000805160206117c28339815191526044820152606401610645565b607480546001600160a01b0319166001600160a01b0392909216919091179055565b6033546001600160a01b03163314610a845760405162461bcd60e51b815260206004820181905260248201526000805160206117c28339815191526044820152606401610645565b607180546001600160a01b0319166001600160a01b0392909216919091179055565b6033546001600160a01b03163314610aee5760405162461bcd60e51b815260206004820181905260248201526000805160206117c28339815191526044820152606401610645565b610af860006113bf565b565b6033546001600160a01b03163314610b425760405162461bcd60e51b815260206004820181905260248201526000805160206117c28339815191526044820152606401610645565b606b55565b6033546001600160a01b03163314610b8f5760405162461bcd60e51b815260206004820181905260248201526000805160206117c28339815191526044820152606401610645565b607280546001600160a01b0319166001600160a01b0392909216919091179055565b6033546001600160a01b03163314610bf95760405162461bcd60e51b815260206004820181905260248201526000805160206117c28339815191526044820152606401610645565b607380546001600160a01b0319166001600160a01b0392909216919091179055565b6033546001600160a01b03163314610c635760405162461bcd60e51b815260206004820181905260248201526000805160206117c28339815191526044820152606401610645565b606755565b6033546001600160a01b03163314610cb05760405162461bcd60e51b815260206004820181905260248201526000805160206117c28339815191526044820152606401610645565b8015610d6d57600160005b607754811015610d1857836001600160a01b031660778281548110610ce257610ce261170a565b6000918252602090912001546001600160a01b03161415610d065760009150610d18565b80610d1081611736565b915050610cbb565b508015610d6b57607780546001810182556000919091527f7901cb5addcae2d210a531c604a76a660d77039093bac314de0816a16392aff10180546001600160a01b0319166001600160a01b0385161790555b505b6001600160a01b03919091166000908152607860205260409020805460ff1916911515919091179055565b6033546001600160a01b03163314610de05760405162461bcd60e51b815260206004820181905260248201526000805160206117c28339815191526044820152606401610645565b606e55565b6071546001600160a01b0316336001600160a01b031614610e485760405162461bcd60e51b815260206004820181905260248201527f43616e206f6e6c792062652063616c6c65642062792074686520726f757465726044820152606401610645565b6001600160a01b03831660009081526070602052604090205460ff1615610eb15760405162461bcd60e51b815260206004820152601b60248201527f596f7527766520616c72656164792063616c6c656420746869732100000000006044820152606401610645565b6001600160a01b0383166000908152607060205260409020805460ff19166001908117909155606e54610ee391611411565b606e55606d54610ef39083611411565b606d55606f54610f039082611411565b606f55505050565b6033546001600160a01b03163314610f535760405162461bcd60e51b815260206004820181905260248201526000805160206117c28339815191526044820152606401610645565b607680546001600160a01b0319166001600160a01b0392909216919091179055565b6033546001600160a01b03163314610fbd5760405162461bcd60e51b815260206004820181905260248201526000805160206117c28339815191526044820152606401610645565b6001600160a01b0381166110395760405162461bcd60e51b815260206004820152602660248201527f4f776e61626c653a206e6577206f776e657220697320746865207a65726f206160448201527f64647265737300000000000000000000000000000000000000000000000000006064820152608401610645565b611042816113bf565b50565b6077818154811061105557600080fd5b6000918252602090912001546001600160a01b0316905081565b6068548310156110cc5760405162461bcd60e51b815260206004820152602260248201527f4c69717569646974792070657263656e746167652062656c6f77206d696e696d604482015261756d60f01b6064820152608401610645565b6069546110e9600a6110e387818a620186a0611424565b90611430565b101561115d5760405162461bcd60e51b815260206004820152602560248201527f536f66742063617020746f6f206c6f7720636f6d706172656420746f2068617260448201527f64206361700000000000000000000000000000000000000000000000000000006064820152608401610645565b4282116111b65760405162461bcd60e51b815260206004820152602160248201527f53616c652074696d652063616e7420737461727420696e2074686520706173746044820152602160f81b6064820152608401610645565b81811161122b5760405162461bcd60e51b815260206004820152603060248201527f53616c6520656e642068617320746f20626520696e207468652066757475726560448201527f2066726f6d2073616c65207374617274000000000000000000000000000000006064820152608401610645565b606b5415806112445750606b54611242828461143c565b105b6112905760405162461bcd60e51b815260206004820152601260248201527f53616c652074696d6520746f6f206c6f6e6700000000000000000000000000006044820152606401610645565b606a546112a860016112a2848661143c565b90611411565b10156112f65760405162461bcd60e51b815260206004820152601360248201527f53616c652074696d6520746f6f2073686f7274000000000000000000000000006044820152606401610645565b5050505050565b600054610100900460ff1680611316575060005460ff16155b6113795760405162461bcd60e51b815260206004820152602e60248201527f496e697469616c697a61626c653a20636f6e747261637420697320616c72656160448201526d191e481a5b9a5d1a585b1a5e995960921b6064820152608401610645565b600054610100900460ff1615801561139b576000805461ffff19166101011790555b6113a3611448565b6113ab6114f9565b8015611042576000805461ff001916905550565b603380546001600160a01b038381166001600160a01b0319831681179093556040519116919082907f8be0079c531659141344cd1fd0a4f28419497f9722a3daafe3b4186f6b6457e090600090a35050565b600061141d8284611751565b9392505050565b600061141d8284611769565b600061141d8284611788565b600061141d82846117aa565b600054610100900460ff1680611461575060005460ff16155b6114c45760405162461bcd60e51b815260206004820152602e60248201527f496e697469616c697a61626c653a20636f6e747261637420697320616c72656160448201526d191e481a5b9a5d1a585b1a5e995960921b6064820152608401610645565b600054610100900460ff161580156113ab576000805461ffff19166101011790558015611042576000805461ff001916905550565b600054610100900460ff1680611512575060005460ff16155b6115755760405162461bcd60e51b815260206004820152602e60248201527f496e697469616c697a61626c653a20636f6e747261637420697320616c72656160448201526d191e481a5b9a5d1a585b1a5e995960921b6064820152608401610645565b600054610100900460ff16158015611597576000805461ffff19166101011790555b6113ab336113bf565b6000602082840312156115b257600080fd5b5035919050565b6001600160a01b038116811461104257600080fd5b600080600080600060a086880312156115e657600080fd5b85356115f1816115b9565b94506020860135611601816115b9565b93506040860135611611816115b9565b92506060860135611621816115b9565b91506080860135611631816115b9565b809150509295509295909350565b60006020828403121561165157600080fd5b813561141d816115b9565b6000806040838503121561166f57600080fd5b823561167a816115b9565b91506020830135801515811461168f57600080fd5b809150509250929050565b6000806000606084860312156116af57600080fd5b83356116ba816115b9565b95602085013595506040909401359392505050565b600080600080600060a086880312156116e757600080fd5b505083359560208501359550604085013594606081013594506080013592509050565b634e487b7160e01b600052603260045260246000fd5b634e487b7160e01b600052601160045260246000fd5b600060001982141561174a5761174a611720565b5060010190565b6000821982111561176457611764611720565b500190565b600081600019048311821515161561178357611783611720565b500290565b6000826117a557634e487b7160e01b600052601260045260246000fd5b500490565b6000828210156117bc576117bc611720565b50039056fe4f776e61626c653a2063616c6c6572206973206e6f7420746865206f776e6572a2646970667358221220653691933cc23f5272db21c499e72ed95ad5c03f7dff9aa475bebd225657247364736f6c634300080b0033",
  "devdoc": {
    "kind": "dev",
    "methods": {
      "owner()": {
        "details": "Returns the address of the current owner."
      },
      "renounceOwnership()": {
        "details": "Leaves the contract without owner. It will not be possible to call `onlyOwner` functions anymore. Can only be called by the current owner. NOTE: Renouncing ownership will leave the contract without an owner, thereby removing any functionality that is only available to the owner."
      },
      "transferOwnership(address)": {
        "details": "Transfers ownership of the contract to a new account (`newOwner`). Can only be called by the current owner."
      }
    },
    "version": 1
  },
  "userdoc": {
    "kind": "user",
    "methods": {
      "exchangeRouter()": {
        "notice": "The address of the router; this can be pancake or uniswap depending on the network"
      },
      "initialize(address,address,address,address,address)": {
        "notice": "The constructor for the router"
      },
      "isValidSaleUpdateApprover(address)": {
        "notice": "Approver -> Bool"
      },
      "launch(address,uint256,uint256)": {
        "notice": "Reflect launch status"
      },
      "launched(address)": {
        "notice": "List of sales launch status"
      },
      "launchingFeeInTokenA()": {
        "notice": "The percentage fee for raised funds in the partner token (only applicable for successful sales) (100 = 1%)"
      },
      "launchingFeeInTokenB()": {
        "notice": "The percentage fee for raised funds in the raised token (only applicable for successful sales) (100 = 1%)"
      },
      "listingFee()": {
        "notice": "The flat fee in BNB (1e18 = 1 BNB)"
      },
      "maxSaleTime()": {
        "notice": "If set, the maximum amount of time a sale has to run for"
      },
      "minCapRatio()": {
        "notice": "The ratio of soft cap to hard cap, i.e. 50% means soft cap must be at least 50% of the hard cap"
      },
      "minLiquidityPercentage()": {
        "notice": "The minimum liquidity percentage (5000 = 50%)"
      },
      "minSaleTime()": {
        "notice": "The minimum amount of time in seconds a sale has to run for"
      },
      "proxyAdmin()": {
        "notice": "Proxy admin"
      },
      "reflexRouter()": {
        "notice": "Reflex Router address"
      },
      "saleImpl()": {
        "notice": "Reflex Sale Implementation"
      },
      "saleUpdateApprovers(uint256)": {
        "notice": "Sale Update Approver list"
      },
      "setExchangeRouter(address)": {
        "notice": "SETTERS"
      },
      "totalParticipants()": {
        "notice": "Total amount of people partcipating"
      },
      "totalProjects()": {
        "notice": "Total amount of launched projects"
      },
      "totalRaised()": {
        "notice": "Total amount of BNB raised"
      },
      "treasury()": {
        "notice": "Treasury address"
      },
      "validate(uint256,uint256,uint256,uint256,uint256)": {
        "notice": "Validates the parameters against the data contract"
      },
      "whitelistImpl()": {
        "notice": "Whitelist Implementation"
      }
    },
    "version": 1
  },
  "storageLayout": {
    "storage": [
      {
        "astId": 130,
        "contract": "contracts/ReflexSettings.sol:ReflexSettings",
        "label": "_initialized",
        "offset": 0,
        "slot": "0",
        "type": "t_bool"
      },
      {
        "astId": 133,
        "contract": "contracts/ReflexSettings.sol:ReflexSettings",
        "label": "_initializing",
        "offset": 1,
        "slot": "0",
        "type": "t_bool"
      },
      {
        "astId": 758,
        "contract": "contracts/ReflexSettings.sol:ReflexSettings",
        "label": "__gap",
        "offset": 0,
        "slot": "1",
        "type": "t_array(t_uint256)50_storage"
      },
      {
        "astId": 10,
        "contract": "contracts/ReflexSettings.sol:ReflexSettings",
        "label": "_owner",
        "offset": 0,
        "slot": "51",
        "type": "t_address"
      },
      {
        "astId": 123,
        "contract": "contracts/ReflexSettings.sol:ReflexSettings",
        "label": "__gap",
        "offset": 0,
        "slot": "52",
        "type": "t_array(t_uint256)49_storage"
      },
      {
        "astId": 5107,
        "contract": "contracts/ReflexSettings.sol:ReflexSettings",
        "label": "listingFee",
        "offset": 0,
        "slot": "101",
        "type": "t_uint256"
      },
      {
        "astId": 5110,
        "contract": "contracts/ReflexSettings.sol:ReflexSettings",
        "label": "launchingFeeInTokenB",
        "offset": 0,
        "slot": "102",
        "type": "t_uint256"
      },
      {
        "astId": 5113,
        "contract": "contracts/ReflexSettings.sol:ReflexSettings",
        "label": "launchingFeeInTokenA",
        "offset": 0,
        "slot": "103",
        "type": "t_uint256"
      },
      {
        "astId": 5116,
        "contract": "contracts/ReflexSettings.sol:ReflexSettings",
        "label": "minLiquidityPercentage",
        "offset": 0,
        "slot": "104",
        "type": "t_uint256"
      },
      {
        "astId": 5119,
        "contract": "contracts/ReflexSettings.sol:ReflexSettings",
        "label": "minCapRatio",
        "offset": 0,
        "slot": "105",
        "type": "t_uint256"
      },
      {
        "astId": 5122,
        "contract": "contracts/ReflexSettings.sol:ReflexSettings",
        "label": "minSaleTime",
        "offset": 0,
        "slot": "106",
        "type": "t_uint256"
      },
      {
        "astId": 5125,
        "contract": "contracts/ReflexSettings.sol:ReflexSettings",
        "label": "maxSaleTime",
        "offset": 0,
        "slot": "107",
        "type": "t_uint256"
      },
      {
        "astId": 5127,
        "contract": "contracts/ReflexSettings.sol:ReflexSettings",
        "label": "earlyWithdrawPenalty",
        "offset": 0,
        "slot": "108",
        "type": "t_uint256"
      },
      {
        "astId": 5130,
        "contract": "contracts/ReflexSettings.sol:ReflexSettings",
        "label": "totalRaised",
        "offset": 0,
        "slot": "109",
        "type": "t_uint256"
      },
      {
        "astId": 5133,
        "contract": "contracts/ReflexSettings.sol:ReflexSettings",
        "label": "totalProjects",
        "offset": 0,
        "slot": "110",
        "type": "t_uint256"
      },
      {
        "astId": 5136,
        "contract": "contracts/ReflexSettings.sol:ReflexSettings",
        "label": "totalParticipants",
        "offset": 0,
        "slot": "111",
        "type": "t_uint256"
      },
      {
        "astId": 5141,
        "contract": "contracts/ReflexSettings.sol:ReflexSettings",
        "label": "launched",
        "offset": 0,
        "slot": "112",
        "type": "t_mapping(t_address,t_bool)"
      },
      {
        "astId": 5144,
        "contract": "contracts/ReflexSettings.sol:ReflexSettings",
        "label": "reflexRouter",
        "offset": 0,
        "slot": "113",
        "type": "t_address"
      },
      {
        "astId": 5148,
        "contract": "contracts/ReflexSettings.sol:ReflexSettings",
        "label": "exchangeRouter",
        "offset": 0,
        "slot": "114",
        "type": "t_contract(IUniswapV2Router02)6552"
      },
      {
        "astId": 5151,
        "contract": "contracts/ReflexSettings.sol:ReflexSettings",
        "label": "saleImpl",
        "offset": 0,
        "slot": "115",
        "type": "t_address"
      },
      {
        "astId": 5154,
        "contract": "contracts/ReflexSettings.sol:ReflexSettings",
        "label": "whitelistImpl",
        "offset": 0,
        "slot": "116",
        "type": "t_address"
      },
      {
        "astId": 5157,
        "contract": "contracts/ReflexSettings.sol:ReflexSettings",
        "label": "proxyAdmin",
        "offset": 0,
        "slot": "117",
        "type": "t_address"
      },
      {
        "astId": 5160,
        "contract": "contracts/ReflexSettings.sol:ReflexSettings",
        "label": "treasury",
        "offset": 0,
        "slot": "118",
        "type": "t_address"
      },
      {
        "astId": 5164,
        "contract": "contracts/ReflexSettings.sol:ReflexSettings",
        "label": "saleUpdateApprovers",
        "offset": 0,
        "slot": "119",
        "type": "t_array(t_address)dyn_storage"
      },
      {
        "astId": 5169,
        "contract": "contracts/ReflexSettings.sol:ReflexSettings",
        "label": "isValidSaleUpdateApprover",
        "offset": 0,
        "slot": "120",
        "type": "t_mapping(t_address,t_bool)"
      }
    ],
    "types": {
      "t_address": {
        "encoding": "inplace",
        "label": "address",
        "numberOfBytes": "20"
      },
      "t_array(t_address)dyn_storage": {
        "base": "t_address",
        "encoding": "dynamic_array",
        "label": "address[]",
        "numberOfBytes": "32"
      },
      "t_array(t_uint256)49_storage": {
        "base": "t_uint256",
        "encoding": "inplace",
        "label": "uint256[49]",
        "numberOfBytes": "1568"
      },
      "t_array(t_uint256)50_storage": {
        "base": "t_uint256",
        "encoding": "inplace",
        "label": "uint256[50]",
        "numberOfBytes": "1600"
      },
      "t_bool": {
        "encoding": "inplace",
        "label": "bool",
        "numberOfBytes": "1"
      },
      "t_contract(IUniswapV2Router02)6552": {
        "encoding": "inplace",
        "label": "contract IUniswapV2Router02",
        "numberOfBytes": "20"
      },
      "t_mapping(t_address,t_bool)": {
        "encoding": "mapping",
        "key": "t_address",
        "label": "mapping(address => bool)",
        "numberOfBytes": "32",
        "value": "t_bool"
      },
      "t_uint256": {
        "encoding": "inplace",
        "label": "uint256",
        "numberOfBytes": "32"
      }
    }
  }
}