{
  "address": "0x4078165119e21A716830C797324741316F0DB778",
  "abi": [
    {
      "inputs": [],
      "name": "ACCURACY",
      "outputs": [
        {
          "internalType": "uint256",
          "name": "",
          "type": "uint256"
        }
      ],
      "stateMutability": "view",
      "type": "function"
    },
    {
      "inputs": [
        {
          "internalType": "address",
          "name": "",
          "type": "address"
        }
      ],
      "name": "_deposited",
      "outputs": [
        {
          "internalType": "uint256",
          "name": "",
          "type": "uint256"
        }
      ],
      "stateMutability": "view",
      "type": "function"
    },
    {
      "inputs": [
        {
          "internalType": "address",
          "name": "account",
          "type": "address"
        }
      ],
      "name": "_userWhitelisted",
      "outputs": [
        {
          "internalType": "bool",
          "name": "",
          "type": "bool"
        }
      ],
      "stateMutability": "view",
      "type": "function"
    },
    {
      "inputs": [
        {
          "internalType": "address",
          "name": "account",
          "type": "address"
        }
      ],
      "name": "accountsDeposited",
      "outputs": [
        {
          "internalType": "uint256",
          "name": "",
          "type": "uint256"
        }
      ],
      "stateMutability": "view",
      "type": "function"
    },
    {
      "inputs": [
        {
          "internalType": "address[]",
          "name": "users",
          "type": "address[]"
        }
      ],
      "name": "addToWhitelist",
      "outputs": [],
      "stateMutability": "nonpayable",
      "type": "function"
    },
    {
      "inputs": [],
      "name": "burn",
      "outputs": [
        {
          "internalType": "bool",
          "name": "",
          "type": "bool"
        }
      ],
      "stateMutability": "view",
      "type": "function"
    },
    {
      "inputs": [],
      "name": "canStart",
      "outputs": [
        {
          "internalType": "bool",
          "name": "",
          "type": "bool"
        }
      ],
      "stateMutability": "view",
      "type": "function"
    },
    {
      "inputs": [],
      "name": "cancel",
      "outputs": [],
      "stateMutability": "nonpayable",
      "type": "function"
    },
    {
      "inputs": [],
      "name": "canceled",
      "outputs": [
        {
          "internalType": "bool",
          "name": "",
          "type": "bool"
        }
      ],
      "stateMutability": "view",
      "type": "function"
    },
    {
      "inputs": [
        {
          "components": [
            {
              "internalType": "uint256",
              "name": "soft",
              "type": "uint256"
            },
            {
              "internalType": "uint256",
              "name": "hard",
              "type": "uint256"
            },
            {
              "internalType": "uint256",
              "name": "min",
              "type": "uint256"
            },
            {
              "internalType": "uint256",
              "name": "max",
              "type": "uint256"
            },
            {
              "internalType": "uint256",
              "name": "presaleRate",
              "type": "uint256"
            },
            {
              "internalType": "uint256",
              "name": "listingRate",
              "type": "uint256"
            },
            {
              "internalType": "uint256",
              "name": "liquidity",
              "type": "uint256"
            },
            {
              "internalType": "uint256",
              "name": "start",
              "type": "uint256"
            },
            {
              "internalType": "uint256",
              "name": "end",
              "type": "uint256"
            },
            {
              "internalType": "bool",
              "name": "whitelisted",
              "type": "bool"
            },
            {
              "internalType": "bool",
              "name": "burn",
              "type": "bool"
            },
            {
              "internalType": "bool",
              "name": "privateSale",
              "type": "bool"
            },
            {
              "internalType": "string",
              "name": "metaInfo",
              "type": "string"
            }
          ],
          "internalType": "struct IReflexSale01.SaleParams",
          "name": "params",
          "type": "tuple"
        }
      ],
      "name": "configure",
      "outputs": [],
      "stateMutability": "nonpayable",
      "type": "function"
    },
    {
      "inputs": [
        {
          "internalType": "uint256",
          "name": "amount",
          "type": "uint256"
        }
      ],
      "name": "deposit",
      "outputs": [],
      "stateMutability": "payable",
      "type": "function"
    },
    {
      "inputs": [],
      "name": "deposited",
      "outputs": [
        {
          "internalType": "uint256",
          "name": "",
          "type": "uint256"
        }
      ],
      "stateMutability": "view",
      "type": "function"
    },
    {
      "inputs": [],
      "name": "disableWhitelist",
      "outputs": [],
      "stateMutability": "nonpayable",
      "type": "function"
    },
    {
      "inputs": [],
      "name": "earlyWithdraw",
      "outputs": [],
      "stateMutability": "nonpayable",
      "type": "function"
    },
    {
      "inputs": [],
      "name": "emergencyWithdrawBNB",
      "outputs": [],
      "stateMutability": "payable",
      "type": "function"
    },
    {
      "inputs": [
        {
          "internalType": "address",
          "name": "_token",
          "type": "address"
        }
      ],
      "name": "emergencyWithdrawTokens",
      "outputs": [],
      "stateMutability": "payable",
      "type": "function"
    },
    {
      "inputs": [],
      "name": "enableWhitelist",
      "outputs": [],
      "stateMutability": "nonpayable",
      "type": "function"
    },
    {
      "inputs": [],
      "name": "end",
      "outputs": [
        {
          "internalType": "uint256",
          "name": "",
          "type": "uint256"
        }
      ],
      "stateMutability": "view",
      "type": "function"
    },
    {
      "inputs": [],
      "name": "ended",
      "outputs": [
        {
          "internalType": "bool",
          "name": "",
          "type": "bool"
        }
      ],
      "stateMutability": "view",
      "type": "function"
    },
    {
      "inputs": [],
      "name": "exchangeRouter",
      "outputs": [
        {
          "internalType": "contract IUniswapV2Router02",
          "name": "",
          "type": "address"
        }
      ],
      "stateMutability": "view",
      "type": "function"
    },
    {
      "inputs": [],
      "name": "failed",
      "outputs": [
        {
          "internalType": "bool",
          "name": "",
          "type": "bool"
        }
      ],
      "stateMutability": "view",
      "type": "function"
    },
    {
      "inputs": [],
      "name": "finalize",
      "outputs": [],
      "stateMutability": "nonpayable",
      "type": "function"
    },
    {
      "inputs": [],
      "name": "getRunner",
      "outputs": [
        {
          "internalType": "address",
          "name": "",
          "type": "address"
        }
      ],
      "stateMutability": "view",
      "type": "function"
    },
    {
      "inputs": [],
      "name": "getSaleParams",
      "outputs": [
        {
          "components": [
            {
              "internalType": "uint256",
              "name": "soft",
              "type": "uint256"
            },
            {
              "internalType": "uint256",
              "name": "hard",
              "type": "uint256"
            },
            {
              "internalType": "uint256",
              "name": "min",
              "type": "uint256"
            },
            {
              "internalType": "uint256",
              "name": "max",
              "type": "uint256"
            },
            {
              "internalType": "uint256",
              "name": "presaleRate",
              "type": "uint256"
            },
            {
              "internalType": "uint256",
              "name": "listingRate",
              "type": "uint256"
            },
            {
              "internalType": "uint256",
              "name": "liquidity",
              "type": "uint256"
            },
            {
              "internalType": "uint256",
              "name": "start",
              "type": "uint256"
            },
            {
              "internalType": "uint256",
              "name": "end",
              "type": "uint256"
            },
            {
              "internalType": "bool",
              "name": "whitelisted",
              "type": "bool"
            },
            {
              "internalType": "bool",
              "name": "burn",
              "type": "bool"
            },
            {
              "internalType": "bool",
              "name": "privateSale",
              "type": "bool"
            },
            {
              "internalType": "string",
              "name": "metaInfo",
              "type": "string"
            }
          ],
          "internalType": "struct IReflexSale01.SaleParams",
          "name": "",
          "type": "tuple"
        }
      ],
      "stateMutability": "view",
      "type": "function"
    },
    {
      "inputs": [
        {
          "internalType": "uint256",
          "name": "tokenBAmount",
          "type": "uint256"
        },
        {
          "internalType": "uint256",
          "name": "rateOfTokenAInTokenB",
          "type": "uint256"
        }
      ],
      "name": "getTokenAAmount",
      "outputs": [
        {
          "internalType": "uint256",
          "name": "",
          "type": "uint256"
        }
      ],
      "stateMutability": "view",
      "type": "function"
    },
    {
      "inputs": [
        {
          "internalType": "uint256",
          "name": "tokenAAmount",
          "type": "uint256"
        },
        {
          "internalType": "uint256",
          "name": "rateOfTokenAInTokenB",
          "type": "uint256"
        }
      ],
      "name": "getTokenBAmount",
      "outputs": [
        {
          "internalType": "uint256",
          "name": "",
          "type": "uint256"
        }
      ],
      "stateMutability": "view",
      "type": "function"
    },
    {
      "inputs": [],
      "name": "hardCap",
      "outputs": [
        {
          "internalType": "uint256",
          "name": "",
          "type": "uint256"
        }
      ],
      "stateMutability": "view",
      "type": "function"
    },
    {
      "inputs": [
        {
          "internalType": "address",
          "name": "_reflexRouter",
          "type": "address"
        },
        {
          "internalType": "address",
          "name": "_owner",
          "type": "address"
        },
        {
          "internalType": "address",
          "name": "_runner",
          "type": "address"
        },
        {
          "internalType": "address",
          "name": "_tokenA",
          "type": "address"
        },
        {
          "internalType": "address",
          "name": "_tokenB",
          "type": "address"
        },
        {
          "internalType": "address",
          "name": "_exchangeRouter",
          "type": "address"
        },
        {
          "internalType": "address",
          "name": "_whitelistImpl",
          "type": "address"
        },
        {
          "internalType": "address",
          "name": "_proxyAdmin",
          "type": "address"
        },
        {
          "internalType": "string",
          "name": "_metaInfo",
          "type": "string"
        },
        {
          "internalType": "address",
          "name": "_treasury",
          "type": "address"
        }
      ],
      "name": "initialize",
      "outputs": [],
      "stateMutability": "nonpayable",
      "type": "function"
    },
    {
      "inputs": [],
      "name": "isSaleUpdateApproved",
      "outputs": [
        {
          "internalType": "bool",
          "name": "",
          "type": "bool"
        }
      ],
      "stateMutability": "view",
      "type": "function"
    },
    {
      "inputs": [],
      "name": "isWhitelistEnabled",
      "outputs": [
        {
          "internalType": "bool",
          "name": "",
          "type": "bool"
        }
      ],
      "stateMutability": "view",
      "type": "function"
    },
    {
      "inputs": [],
      "name": "isWhitelisted",
      "outputs": [
        {
          "internalType": "bool",
          "name": "",
          "type": "bool"
        }
      ],
      "stateMutability": "view",
      "type": "function"
    },
    {
      "inputs": [],
      "name": "launched",
      "outputs": [
        {
          "internalType": "bool",
          "name": "",
          "type": "bool"
        }
      ],
      "stateMutability": "view",
      "type": "function"
    },
    {
      "inputs": [],
      "name": "liquidity",
      "outputs": [
        {
          "internalType": "uint256",
          "name": "",
          "type": "uint256"
        }
      ],
      "stateMutability": "view",
      "type": "function"
    },
    {
      "inputs": [],
      "name": "liquidityAmount",
      "outputs": [
        {
          "internalType": "uint256",
          "name": "",
          "type": "uint256"
        }
      ],
      "stateMutability": "view",
      "type": "function"
    },
    {
      "inputs": [],
      "name": "listingRate",
      "outputs": [
        {
          "internalType": "uint256",
          "name": "",
          "type": "uint256"
        }
      ],
      "stateMutability": "view",
      "type": "function"
    },
    {
      "inputs": [],
      "name": "lpToken",
      "outputs": [
        {
          "internalType": "address",
          "name": "",
          "type": "address"
        }
      ],
      "stateMutability": "view",
      "type": "function"
    },
    {
      "inputs": [],
      "name": "max",
      "outputs": [
        {
          "internalType": "uint256",
          "name": "",
          "type": "uint256"
        }
      ],
      "stateMutability": "view",
      "type": "function"
    },
    {
      "inputs": [],
      "name": "metaInfo",
      "outputs": [
        {
          "internalType": "string",
          "name": "",
          "type": "string"
        }
      ],
      "stateMutability": "view",
      "type": "function"
    },
    {
      "inputs": [],
      "name": "min",
      "outputs": [
        {
          "internalType": "uint256",
          "name": "",
          "type": "uint256"
        }
      ],
      "stateMutability": "view",
      "type": "function"
    },
    {
      "inputs": [],
      "name": "owner",
      "outputs": [
        {
          "internalType": "address",
          "name": "",
          "type": "address"
        }
      ],
      "stateMutability": "view",
      "type": "function"
    },
    {
      "inputs": [],
      "name": "prepared",
      "outputs": [
        {
          "internalType": "bool",
          "name": "",
          "type": "bool"
        }
      ],
      "stateMutability": "view",
      "type": "function"
    },
    {
      "inputs": [],
      "name": "presaleRate",
      "outputs": [
        {
          "internalType": "uint256",
          "name": "",
          "type": "uint256"
        }
      ],
      "stateMutability": "view",
      "type": "function"
    },
    {
      "inputs": [],
      "name": "privateSale",
      "outputs": [
        {
          "internalType": "bool",
          "name": "",
          "type": "bool"
        }
      ],
      "stateMutability": "view",
      "type": "function"
    },
    {
      "inputs": [],
      "name": "proxyAdmin",
      "outputs": [
        {
          "internalType": "address",
          "name": "",
          "type": "address"
        }
      ],
      "stateMutability": "view",
      "type": "function"
    },
    {
      "inputs": [],
      "name": "raised",
      "outputs": [
        {
          "internalType": "uint256",
          "name": "",
          "type": "uint256"
        }
      ],
      "stateMutability": "view",
      "type": "function"
    },
    {
      "inputs": [],
      "name": "reclaim",
      "outputs": [],
      "stateMutability": "nonpayable",
      "type": "function"
    },
    {
      "inputs": [],
      "name": "reflexRouter",
      "outputs": [
        {
          "internalType": "contract IReflexRouter01",
          "name": "",
          "type": "address"
        }
      ],
      "stateMutability": "view",
      "type": "function"
    },
    {
      "inputs": [
        {
          "internalType": "address[]",
          "name": "addrs",
          "type": "address[]"
        }
      ],
      "name": "removeFromWhitelist",
      "outputs": [],
      "stateMutability": "nonpayable",
      "type": "function"
    },
    {
      "inputs": [],
      "name": "removeWhitelist",
      "outputs": [],
      "stateMutability": "nonpayable",
      "type": "function"
    },
    {
      "inputs": [],
      "name": "resetWhitelist",
      "outputs": [],
      "stateMutability": "nonpayable",
      "type": "function"
    },
    {
      "inputs": [],
      "name": "runner",
      "outputs": [
        {
          "internalType": "address",
          "name": "",
          "type": "address"
        }
      ],
      "stateMutability": "view",
      "type": "function"
    },
    {
      "inputs": [],
      "name": "running",
      "outputs": [
        {
          "internalType": "bool",
          "name": "",
          "type": "bool"
        }
      ],
      "stateMutability": "view",
      "type": "function"
    },
    {
      "inputs": [],
      "name": "saleAmount",
      "outputs": [
        {
          "internalType": "uint256",
          "name": "",
          "type": "uint256"
        }
      ],
      "stateMutability": "view",
      "type": "function"
    },
    {
      "inputs": [],
      "name": "saleParams",
      "outputs": [
        {
          "internalType": "uint256",
          "name": "soft",
          "type": "uint256"
        },
        {
          "internalType": "uint256",
          "name": "hard",
          "type": "uint256"
        },
        {
          "internalType": "uint256",
          "name": "min",
          "type": "uint256"
        },
        {
          "internalType": "uint256",
          "name": "max",
          "type": "uint256"
        },
        {
          "internalType": "uint256",
          "name": "presaleRate",
          "type": "uint256"
        },
        {
          "internalType": "uint256",
          "name": "listingRate",
          "type": "uint256"
        },
        {
          "internalType": "uint256",
          "name": "liquidity",
          "type": "uint256"
        },
        {
          "internalType": "uint256",
          "name": "start",
          "type": "uint256"
        },
        {
          "internalType": "uint256",
          "name": "end",
          "type": "uint256"
        },
        {
          "internalType": "bool",
          "name": "whitelisted",
          "type": "bool"
        },
        {
          "internalType": "bool",
          "name": "burn",
          "type": "bool"
        },
        {
          "internalType": "bool",
          "name": "privateSale",
          "type": "bool"
        },
        {
          "internalType": "string",
          "name": "metaInfo",
          "type": "string"
        }
      ],
      "stateMutability": "view",
      "type": "function"
    },
    {
      "inputs": [
        {
          "internalType": "address",
          "name": "_runner",
          "type": "address"
        }
      ],
      "name": "setRunner",
      "outputs": [],
      "stateMutability": "nonpayable",
      "type": "function"
    },
    {
      "inputs": [],
      "name": "setSaleUpdateApproved",
      "outputs": [],
      "stateMutability": "nonpayable",
      "type": "function"
    },
    {
      "inputs": [],
      "name": "setWhitelist",
      "outputs": [],
      "stateMutability": "nonpayable",
      "type": "function"
    },
    {
      "inputs": [],
      "name": "softCap",
      "outputs": [
        {
          "internalType": "uint256",
          "name": "",
          "type": "uint256"
        }
      ],
      "stateMutability": "view",
      "type": "function"
    },
    {
      "inputs": [],
      "name": "start",
      "outputs": [
        {
          "internalType": "uint256",
          "name": "",
          "type": "uint256"
        }
      ],
      "stateMutability": "view",
      "type": "function"
    },
    {
      "inputs": [],
      "name": "successful",
      "outputs": [
        {
          "internalType": "bool",
          "name": "",
          "type": "bool"
        }
      ],
      "stateMutability": "view",
      "type": "function"
    },
    {
      "inputs": [],
      "name": "tokenA",
      "outputs": [
        {
          "internalType": "address",
          "name": "",
          "type": "address"
        }
      ],
      "stateMutability": "view",
      "type": "function"
    },
    {
      "inputs": [],
      "name": "tokenB",
      "outputs": [
        {
          "internalType": "address",
          "name": "",
          "type": "address"
        }
      ],
      "stateMutability": "view",
      "type": "function"
    },
    {
      "inputs": [],
      "name": "totalTokens",
      "outputs": [
        {
          "internalType": "uint256",
          "name": "",
          "type": "uint256"
        }
      ],
      "stateMutability": "view",
      "type": "function"
    },
    {
      "inputs": [],
      "name": "treasury",
      "outputs": [
        {
          "internalType": "address",
          "name": "",
          "type": "address"
        }
      ],
      "stateMutability": "view",
      "type": "function"
    },
    {
      "inputs": [
        {
          "internalType": "address",
          "name": "account",
          "type": "address"
        }
      ],
      "name": "userTokenAAmount",
      "outputs": [
        {
          "internalType": "uint256",
          "name": "",
          "type": "uint256"
        }
      ],
      "stateMutability": "view",
      "type": "function"
    },
    {
      "inputs": [],
      "name": "userWhitelisted",
      "outputs": [
        {
          "internalType": "bool",
          "name": "",
          "type": "bool"
        }
      ],
      "stateMutability": "view",
      "type": "function"
    },
    {
      "inputs": [],
      "name": "whitelist",
      "outputs": [
        {
          "internalType": "address",
          "name": "",
          "type": "address"
        }
      ],
      "stateMutability": "view",
      "type": "function"
    },
    {
      "inputs": [],
      "name": "whitelistImpl",
      "outputs": [
        {
          "internalType": "address",
          "name": "",
          "type": "address"
        }
      ],
      "stateMutability": "view",
      "type": "function"
    },
    {
      "inputs": [],
      "name": "withdraw",
      "outputs": [],
      "stateMutability": "nonpayable",
      "type": "function"
    },
    {
      "stateMutability": "payable",
      "type": "receive"
    }
  ],
  "transactionHash": "0xbf760c7245341da3c23a53d609d053519361fc10f773d3bfc6f3c074ca70d7e6",
  "args": [],
  "numDeployments": 6,
  "solcInputHash": "388c52f916a6baeeb49eff51378fabad",
  "bytecode": "0x608060405234801561001057600080fd5b50615a67806100206000396000f3fe608060405260043610620004a85760003560e01c80638091f3bf1162000272578063ba414fa6116200015d578063ec30903811620000ca578063f26b854f1162000095578063fb86a4041162000078578063fb86a4041462000cda578063fbcd9b051462000cf2578063fbf6d2e31462000d0d57600080fd5b8063f26b854f1462000cb8578063f88979451462000cc257600080fd5b8063ec3090381462000c58578063eef49ee31462000c70578063efbe1c1c1462000c88578063f0ea4bfc1462000ca057600080fd5b8063d6b0f4841162000128578063e1d03ecf116200010b578063e1d03ecf1462000bed578063e498bd8b1462000c0f578063ea8a1af01462000c4057600080fd5b8063d6b0f4841462000bbd578063d85bd5261462000bd557600080fd5b8063ba414fa61462000b3b578063be9a65551462000b53578063c1d0ea221462000b6b578063cdfb2b4e1462000ba557600080fd5b80639a9e3fd811620001fc578063b4ee86f611620001c7578063b70aeaf411620001aa578063b70aeaf41462000ad9578063b923b2051462000b00578063ba1f879f1462000b1857600080fd5b8063b4ee86f61462000aa6578063b6b55f251462000ac257600080fd5b80639a9e3fd81462000a435780639b693b241462000a5f578063a20ecbbb1462000a77578063b2af127c1462000a8f57600080fd5b80638aae995a116200023d5780638aae995a14620009cf5780638da5cb5b14620009e7578063906a26e01462000a0957806393e59dc11462000a2157600080fd5b80638091f3bf146200094c5780638092db55146200096f57806380e9071b146200099257806382fe3aca14620009aa57600080fd5b806342f3938111620003935780635fcbd285116200031d57806370baed4311620002e85780637a8ca61511620002cb5780637a8ca61514620008ed5780637e1c0c09146200090f5780637f649783146200092757600080fd5b806370baed4314620008b05780637243460e14620008c857600080fd5b80635fcbd2851462000832578063611b4095146200085457806361d027b314620008765780636ac5db19146200089857600080fd5b8063548db174116200035e578063548db17414620007ae578063570d3e2514620007d35780635909865a14620007f85780635f64b55b146200081057600080fd5b806342f39381146200073457806344df8e70146200074c5780634bb278f3146200076f578063527203e3146200078757600080fd5b806317ff407c11620004325780631cb8581811620003fd5780633ccfd60b11620003e05780633ccfd60b14620006d75780633e47158c14620006ef5780633f9942ff146200071157600080fd5b80631cb8581814620006905780631dd62ef714620006b257600080fd5b806317ff407c146200060c578063184d69ab146200063f578063193e851214620006605780631a686502146200067857600080fd5b806314f10d92116200047357806314f10d92146200058357806315d74bb314620005b757806316a7891014620005cf57806317f708fb14620005f457600080fd5b80630238c6da14620004d95780630974485014620005185780630fc63d10146200053857806312fa6feb146200055a57600080fd5b36620004d4576046546001600160a01b031615620004c557600080fd5b620004d2335b3462000d32565b005b600080fd5b348015620004e657600080fd5b50603654620004fb906001600160a01b031681565b6040516001600160a01b0390911681526020015b60405180910390f35b3480156200052557600080fd5b506034546001600160a01b0316620004fb565b3480156200054557600080fd5b50604554620004fb906001600160a01b031681565b3480156200056757600080fd5b506200057262001184565b60405190151581526020016200050f565b3480156200059057600080fd5b50620005a8620005a23660046200415d565b620011a6565b6040519081526020016200050f565b348015620005c457600080fd5b50620004d2620011d4565b348015620005dc57600080fd5b5062000572620005ee3660046200415d565b62001470565b3480156200060157600080fd5b50620004d262001509565b3480156200061957600080fd5b506200062462001636565b6040516200050f9d9c9b9a99989796959493929190620041da565b3480156200064c57600080fd5b506058546200057290610100900460ff1681565b3480156200066d57600080fd5b50620004d262001718565b3480156200068557600080fd5b50620005a8604d5481565b3480156200069d57600080fd5b50603854620004fb906001600160a01b031681565b348015620006bf57600080fd5b50620004d2620006d136600462004362565b62001783565b348015620006e457600080fd5b50620004d262001b8d565b348015620006fc57600080fd5b50603754620004fb906001600160a01b031681565b3480156200071e57600080fd5b506052546200057290600160b01b900460ff1681565b3480156200074157600080fd5b50620005a8604b5481565b3480156200075957600080fd5b506050546200057290600160a01b900460ff1681565b3480156200077c57600080fd5b50620004d262001d56565b3480156200079457600080fd5b506200079f62002686565b6040516200050f919062004474565b348015620007bb57600080fd5b50620004d2620007cd36600462004539565b6200281e565b348015620007e057600080fd5b50620004d2620007f23660046200415d565b62002948565b3480156200080557600080fd5b50620004d2620029e9565b3480156200081d57600080fd5b50604654620004fb906001600160a01b031681565b3480156200083f57600080fd5b50603954620004fb906001600160a01b031681565b3480156200086157600080fd5b506050546001600160a01b0316151562000572565b3480156200088357600080fd5b50605254620004fb906001600160a01b031681565b348015620008a557600080fd5b50620005a8604a5481565b348015620008bd57600080fd5b50620005a860555481565b348015620008d557600080fd5b50620005a8620008e7366004620045f8565b62002b64565b348015620008fa57600080fd5b50603454620004fb906001600160a01b031681565b3480156200091c57600080fd5b50620005a860535481565b3480156200093457600080fd5b50620004d26200094636600462004539565b62002bce565b3480156200095957600080fd5b506052546200057290600160a81b900460ff1681565b3480156200097c57600080fd5b506052546200057290600160a01b900460ff1681565b3480156200099f57600080fd5b50620004d262002cd2565b348015620009b757600080fd5b50620004d2620009c93660046200461b565b62002e28565b348015620009dc57600080fd5b50620005a860545481565b348015620009f457600080fd5b50603354620004fb906001600160a01b031681565b34801562000a1657600080fd5b50620005a860475481565b34801562000a2e57600080fd5b50605054620004fb906001600160a01b031681565b34801562000a5057600080fd5b50604754605654101562000572565b34801562000a6c57600080fd5b506200057262002fc7565b34801562000a8457600080fd5b50620005a8604c5481565b620004d262000aa03660046200415d565b62002fd4565b34801562000ab357600080fd5b50605854620005729060ff1681565b620004d262000ad336600462004710565b6200305a565b34801562000ae657600080fd5b5062000af16200309c565b6040516200050f91906200472a565b34801562000b0d57600080fd5b50620004d262003132565b34801562000b2557600080fd5b506050546200057290600160a81b900460ff1681565b34801562000b4857600080fd5b506200057262003269565b34801562000b6057600080fd5b50620005a8604e5481565b34801562000b7857600080fd5b50620005a862000b8a3660046200415d565b6001600160a01b031660009081526057602052604090205490565b34801562000bb257600080fd5b50620004d262003283565b34801562000bca57600080fd5b50620004d262003323565b34801562000be257600080fd5b5062000572620033c0565b34801562000bfa57600080fd5b50603554620004fb906001600160a01b031681565b34801562000c1c57600080fd5b50620005a862000c2e3660046200415d565b60576020526000908152604090205481565b34801562000c4d57600080fd5b50620004d2620033d9565b34801562000c6557600080fd5b506200057262003534565b34801562000c7d57600080fd5b50620005a8620035af565b34801562000c9557600080fd5b50620005a8604f5481565b34801562000cad57600080fd5b50620005a860565481565b620004d2620035bc565b34801562000ccf57600080fd5b50620005a860495481565b34801562000ce757600080fd5b50620005a860485481565b34801562000cff57600080fd5b50620005a86402540be40081565b34801562000d1a57600080fd5b50620005a862000d2c366004620045f8565b6200363f565b605254600160b01b900460ff161562000d855760405162461bcd60e51b815260206004820152601060248201526f14d85b19481a5cc818d85b98d95b195960821b60448201526064015b60405180910390fd5b62000d8f620033c0565b62000ddd5760405162461bcd60e51b815260206004820152601360248201527f53616c652069736e27742072756e6e696e672100000000000000000000000000604482015260640162000d7c565b62000de762003534565b62000e355760405162461bcd60e51b815260206004820152601e60248201527f546f6b656e2062616c616e63652069736e277420746f70706564207570210000604482015260640162000d7c565b60495481101562000e895760405162461bcd60e51b815260206004820152601860248201527f416d6f756e74206d7573742062652061626f7665206d696e0000000000000000604482015260640162000d7c565b604a5481111562000edd5760405162461bcd60e51b815260206004820152601860248201527f416d6f756e74206d7573742062652062656c6f77206d61780000000000000000604482015260640162000d7c565b60485460565462000eef9083620036a9565b111562000f3f5760405162461bcd60e51b815260206004820152601460248201527f43616e7420657863656564206861726420636170000000000000000000000000604482015260640162000d7c565b604a546001600160a01b03831660009081526057602052604090205462000f679083620036a9565b111562000fb75760405162461bcd60e51b815260206004820152601e60248201527f43616e74206465706f736974206d6f7265207468616e20746865206d61780000604482015260640162000d7c565b6050546001600160a01b03161580159062000fd95750605854610100900460ff165b156200109e57605054604051633af32abf60e01b81526001600160a01b03848116600483015290911690633af32abf90602401602060405180830381865afa1580156200102a573d6000803e3d6000fd5b505050506040513d601f19601f820116820180604052508101906200105091906200473f565b6200109e5760405162461bcd60e51b815260206004820152601460248201527f55736572206e6f742077686974656c6973746564000000000000000000000000604482015260640162000d7c565b604754605654108015620010c25750604754605654620010bf9083620036a9565b10155b156200113057603554604051634530ffb760e11b81526001600160a01b0390911690638a61ff6e90620010fb906003906004016200475f565b600060405180830381600087803b1580156200111657600080fd5b505af11580156200112b573d6000803e3d6000fd5b505050505b6001600160a01b038216600090815260576020526040902054620011559082620036a9565b6001600160a01b0383166000908152605760205260409020556056546200117d9082620036a9565b6056555050565b6000604f5442101580620011a15750605254600160a81b900460ff165b905090565b6001600160a01b038116600090815260576020526040812054620011cd81604b546200363f565b9392505050565b605254600160b01b900460ff1615620012235760405162461bcd60e51b815260206004820152601060248201526f14d85b19481a5cc818d85b98d95b195960821b604482015260640162000d7c565b6200122d620033c0565b6200127b5760405162461bcd60e51b815260206004820152601360248201527f53616c652069736e27742072756e6e696e672100000000000000000000000000604482015260640162000d7c565b6200128562003534565b620012d35760405162461bcd60e51b815260206004820152601e60248201527f546f6b656e2062616c616e63652069736e277420746f70706564207570210000604482015260640162000d7c565b33600090815260576020526040902054620012ef81806200479e565b336000908152605760205260409020556056546200130e9082620036b7565b6056556035546040805163d29004d960e01b815290516000926200139f926127109262001398926001600160a01b03169163d29004d99160048083019260209291908290030181865afa1580156200136a573d6000803e3d6000fd5b505050506040513d601f19601f82011682018060405250810190620013909190620047b8565b8590620036c5565b90620036d3565b90506000620013af8383620036b7565b6046549091506001600160a01b03166200143357604051339082156108fc029083906000818181858888f19350505050158015620013f1573d6000803e3d6000fd5b506052546040516001600160a01b039091169083156108fc029084906000818181858888f193505050501580156200142d573d6000803e3d6000fd5b50505050565b6046546200144c906001600160a01b03163383620036e1565b6052546046546200146b916001600160a01b03918216911684620036e1565b505050565b6050546000906001600160a01b031615620014fc57605054604051633af32abf60e01b81526001600160a01b03848116600483015290911690633af32abf90602401602060405180830381865afa158015620014d0573d6000803e3d6000fd5b505050506040513d601f19601f82011682018060405250810190620014f691906200473f565b92915050565b506000919050565b919050565b6035546001600160a01b03163314806200152d57506033546001600160a01b031633145b806200154357506034546001600160a01b031633145b620015885760405162461bcd60e51b815260206004820152601460248201527321b0b63632b91034b9b73a1030b71030b236b4b760611b604482015260640162000d7c565b604e544210620015ca5760405162461bcd60e51b815260206004820152600c60248201526b14d85b19481cdd185c9d195960a21b604482015260640162000d7c565b6050546001600160a01b0316620016245760405162461bcd60e51b815260206004820152601b60248201527f54686572652069736e277420612077686974656c697374207365740000000000604482015260640162000d7c565b605080546001600160a01b0319169055565b603a8054603b54603c54603d54603e54603f54604054604154604254604354604480549a9b999a989997989697959694959394929360ff80841694610100850482169462010000900490911692906200168f90620047d2565b80601f0160208091040260200160405190810160405280929190818152602001828054620016bd90620047d2565b80156200170e5780601f10620016e2576101008083540402835291602001916200170e565b820191906000526020600020905b815481529060010190602001808311620016f057829003601f168201915b505050505090508d565b6035546001600160a01b03163314620017745760405162461bcd60e51b815260206004820152601260248201527f6f6e6c79207265666c657820726f757465720000000000000000000000000000604482015260640162000d7c565b6058805460ff19166001179055565b6035546001600160a01b0316331480620017a757506033546001600160a01b031633145b80620017bd57506034546001600160a01b031633145b620018025760405162461bcd60e51b815260206004820152601460248201527321b0b63632b91034b9b73a1030b71030b236b4b760611b604482015260640162000d7c565b6034546001600160a01b0316331415620018755760585460ff166200186a5760405162461bcd60e51b815260206004820152601860248201527f73616c6520757064617465206e6f7420617070726f7665640000000000000000604482015260640162000d7c565b6058805460ff191690555b8051603a908155602080830151603b55604080840151603c556060840151603d556080840151603e5560a0840151603f5560c0840151905560e0830151604155610100808401516042556101208401516043805461014087015161016088015161ffff1990921693151561ff001916939093179215159093029190911762ff0000191662010000921515929092029190911790556101808301518051849392620019259260449291019062004086565b5050815160475550602081015160485560408101516049556060810151604a556080810151604b5560a0810151604c55610160810151620019695760c0810151604d555b60e0810151604e55610100810151604f55610140810151605080546101608401511515600160a81b0260ff60a81b19931515600160a01b02939093167fffffffffffffffffffff0000ffffffffffffffffffffffffffffffffffffffff90911617919091179055604854604b54620019e291906200363f565b605455605054600160a81b900460ff1662001a205762001a1c61271062001398604d5462001a15604854604c546200363f565b90620036c5565b6055555b60555460545462001a3191620036a9565b6053556050546001600160a01b031615801562001a5057508061012001515b1562001b5657603654603754604080516000815260208101918290526001600160a01b0393841693909216919062001a889062004115565b62001a96939291906200480f565b604051809103906000f08015801562001ab3573d6000803e3d6000fd5b50605080546001600160a01b0319166001600160a01b039290921691821790556040805163204a7f0760e21b81529051638129fc1c9160048082019260009290919082900301818387803b15801562001b0b57600080fd5b505af115801562001b20573d6000803e3d6000fd5b5050505062001b2c3390565b6035546001600160a01b039081169116141562001b53576058805461ff0019166101001790555b50565b6050546001600160a01b03161580159062001b745750806101200151155b1562001b5357605080546001600160a01b031916905550565b62001b9762001184565b62001be55760405162461bcd60e51b815260206004820152601060248201527f53616c65206861736e7420656e64656400000000000000000000000000000000604482015260640162000d7c565b3360009081526057602052604090205462001c435760405162461bcd60e51b815260206004820152601260248201527f55736572206469646e742070617274616b650000000000000000000000000000604482015260640162000d7c565b33600090815260576020526040812080549190556047546056541062001cee57605254600160a81b900460ff1662001cbe5760405162461bcd60e51b815260206004820152601460248201527f53616c65206861736e742066696e616c697a6564000000000000000000000000604482015260640162000d7c565b600062001cce82604b546200363f565b60455490915062001cea906001600160a01b0316338362003735565b5050565b62001cf862003269565b1562001b53576046546001600160a01b031662001d3d57604051339082156108fc029083906000818181858888f1935050505015801562001cea573d6000803e3d6000fd5b60465462001b53906001600160a01b03163383620036e1565b6035546001600160a01b031633148062001d7a57506033546001600160a01b031633145b8062001d9057506034546001600160a01b031633145b62001dd55760405162461bcd60e51b815260206004820152601460248201527321b0b63632b91034b9b73a1030b71030b236b4b760611b604482015260640162000d7c565b604754605654101562001e2b5760405162461bcd60e51b815260206004820152601660248201527f53616c652069736e2774207375636365737366756c2100000000000000000000604482015260640162000d7c565b42604f5560355460408051633a4c173160e11b8152905160009262001eb8926127109262001398926001600160a01b0316916374982e629160048083019260209291908290030181865afa15801562001e88573d6000803e3d6000fd5b505050506040513d601f19601f8201168201806040525081019062001eae9190620047b8565b60565490620036c5565b9050600062001f5161271062001398603560009054906101000a90046001600160a01b03166001600160a01b031663e6fd885f6040518163ffffffff1660e01b8152600401602060405180830381865afa15801562001f1b573d6000803e3d6000fd5b505050506040513d601f19601f8201168201806040525081019062001f419190620047b8565b62001a15605654604b546200363f565b6046549091506001600160a01b031662001f835760525462001f7d906001600160a01b03168362003879565b62001fa2565b60465460525462001fa2916001600160a01b0390811691168462003735565b60455460525462001fc1916001600160a01b0390811691168362003735565b605054600090600160a81b900460ff166200249957620020028362001ffb61271062001398604d54605654620036c590919063ffffffff16565b90620036b7565b905060006200201482604c546200363f565b60455460385491925062002036916001600160a01b0391821691168362003962565b6046546001600160a01b031662002293576038546045546001600160a01b039182169163f305d719918591168460008033620020754261012c620036a9565b60405160e089901b6001600160e01b03191681526001600160a01b039687166004820152602481019590955260448501939093526064840191909152909216608482015260a481019190915260c40160606040518083038185885af1158015620020e3573d6000803e3d6000fd5b50505050506040513d601f19601f820116820180604052508101906200210a919062004846565b50506038546040805163c45a015560e01b815290516001600160a01b03909216925063c45a01559160048083019260209291908290030181865afa15801562002157573d6000803e3d6000fd5b505050506040513d601f19601f820116820180604052508101906200217d919062004875565b604554603854604080516315ab88c960e31b815290516001600160a01b039485169463e6a4390594811693169163ad5c46489160048083019260209291908290030181865afa158015620021d5573d6000803e3d6000fd5b505050506040513d601f19601f82011682018060405250810190620021fb919062004875565b6040516001600160e01b031960e085901b1681526001600160a01b03928316600482015291166024820152604401602060405180830381865afa15801562002247573d6000803e3d6000fd5b505050506040513d601f19601f820116820180604052508101906200226d919062004875565b603980546001600160a01b0319166001600160a01b039290921691909117905562002497565b604654603854620022b2916001600160a01b0390811691168462003962565b6038546045546046546001600160a01b039283169263e8e337009281169116848660008033620022e54261012c620036a9565b60405160e08a901b6001600160e01b03191681526001600160a01b039889166004820152968816602488015260448701959095526064860193909352608485019190915260a484015290921660c482015260e4810191909152610104016060604051808303816000875af115801562002362573d6000803e3d6000fd5b505050506040513d601f19601f8201168201806040525081019062002388919062004846565b50506038546040805163c45a015560e01b815290516001600160a01b03909216925063c45a01559160048083019260209291908290030181865afa158015620023d5573d6000803e3d6000fd5b505050506040513d601f19601f82011682018060405250810190620023fb919062004875565b60455460465460405163e6a4390560e01b81526001600160a01b039283166004820152908216602482015291169063e6a4390590604401602060405180830381865afa15801562002450573d6000803e3d6000fd5b505050506040513d601f19601f8201168201806040525081019062002476919062004875565b603980546001600160a01b0319166001600160a01b03929092169190911790555b505b6046546001600160a01b0316620024d757620024d133620024cb8562001ffb85605654620036b790919063ffffffff16565b62003879565b6200250b565b6046546200250b906001600160a01b031633620025058662001ffb86605654620036b790919063ffffffff16565b62003735565b60006200251d605654604b546200363f565b6045546040516370a0823160e01b815230600482015291925060009183916001600160a01b0316906370a0823190602401602060405180830381865afa1580156200256c573d6000803e3d6000fd5b505050506040513d601f19601f82011682018060405250810190620025929190620047b8565b6200259e91906200479e565b605054909150600160a81b900460ff16158015620025c55750605054600160a01b900460ff165b15620025ec57604554620025e6906001600160a01b031661dead8362003735565b62002605565b60455462002605906001600160a01b0316338362003735565b6052805460ff60a81b1916600160a81b179055603554604051634530ffb760e11b81526001600160a01b0390911690638a61ff6e906200264b906001906004016200475f565b600060405180830381600087803b1580156200266657600080fd5b505af11580156200267b573d6000803e3d6000fd5b505050505050505050565b620026f8604051806101a00160405280600081526020016000815260200160008152602001600081526020016000815260200160008152602001600081526020016000815260200160008152602001600015158152602001600015158152602001600015158152602001606081525090565b604080516101a081018252603a80548252603b546020830152603c5482840152603d546060830152603e546080830152603f5460a0830152915460c082015260415460e08201526042546101008083019190915260435460ff80821615156101208501529181048216151561014084015262010000900416151561016082015260448054919291610180840191906200279190620047d2565b80601f0160208091040260200160405190810160405280929190818152602001828054620027bf90620047d2565b8015620028105780601f10620027e45761010080835404028352916020019162002810565b820191906000526020600020905b815481529060010190602001808311620027f257829003601f168201915b505050505081525050905090565b6035546001600160a01b03163314806200284257506033546001600160a01b031633145b806200285857506034546001600160a01b031633145b6200289d5760405162461bcd60e51b815260206004820152601460248201527321b0b63632b91034b9b73a1030b71030b236b4b760611b604482015260640162000d7c565b604e544210620028df5760405162461bcd60e51b815260206004820152600c60248201526b14d85b19481cdd185c9d195960a21b604482015260640162000d7c565b6050546040516315236c5d60e21b81526001600160a01b039091169063548db174906200291190849060040162004895565b600060405180830381600087803b1580156200292c57600080fd5b505af115801562002941573d6000803e3d6000fd5b5050505050565b6035546001600160a01b03163314806200296c57506033546001600160a01b031633145b806200298257506034546001600160a01b031633145b620029c75760405162461bcd60e51b815260206004820152601460248201527321b0b63632b91034b9b73a1030b71030b236b4b760611b604482015260640162000d7c565b603480546001600160a01b0319166001600160a01b0392909216919091179055565b6035546001600160a01b031633148062002a0d57506033546001600160a01b031633145b8062002a2357506034546001600160a01b031633145b62002a685760405162461bcd60e51b815260206004820152601460248201527321b0b63632b91034b9b73a1030b71030b236b4b760611b604482015260640162000d7c565b6050546001600160a01b03161562002b62576036546037546001600160a01b03918216911660005b6040519080825280601f01601f19166020018201604052801562002abb576020820181803683370190505b5060405162002aca9062004115565b62002ad8939291906200480f565b604051809103906000f08015801562002af5573d6000803e3d6000fd5b50605080546001600160a01b0319166001600160a01b039290921691821790556040805163204a7f0760e21b81529051638129fc1c9160048082019260009290919082900301818387803b15801562002b4d57600080fd5b505af11580156200142d573d6000803e3d6000fd5b565b604554600090620011cd9062002b83906001600160a01b031662003aa6565b62002b9090600a620049e1565b60465462001398908590829062002bb0906001600160a01b031662003aa6565b62002bbd90600a620049e1565b62001a15896402540be400620036c5565b6035546001600160a01b031633148062002bf257506033546001600160a01b031633145b8062002c0857506034546001600160a01b031633145b62002c4d5760405162461bcd60e51b815260206004820152601460248201527321b0b63632b91034b9b73a1030b71030b236b4b760611b604482015260640162000d7c565b604f54421062002ca05760405162461bcd60e51b815260206004820152600a60248201527f53616c6520656e64656400000000000000000000000000000000000000000000604482015260640162000d7c565b605054604051637f64978360e01b81526001600160a01b0390911690637f649783906200291190849060040162004895565b6035546001600160a01b031633148062002cf657506033546001600160a01b031633145b8062002d0c57506034546001600160a01b031633145b62002d515760405162461bcd60e51b815260206004820152601460248201527321b0b63632b91034b9b73a1030b71030b236b4b760611b604482015260640162000d7c565b605254600160b01b900460ff1662002dac5760405162461bcd60e51b815260206004820152601960248201527f53616c65206861736e2774206265656e2063616e63656c656400000000000000604482015260640162000d7c565b6045546034546040516370a0823160e01b815230600482015262002b62926001600160a01b0390811692169082906370a08231906024015b602060405180830381865afa15801562002e02573d6000803e3d6000fd5b505050506040513d601f19601f82011682018060405250810190620025059190620047b8565b600054610100900460ff168062002e42575060005460ff16155b62002ea75760405162461bcd60e51b815260206004820152602e60248201527f496e697469616c697a61626c653a20636f6e747261637420697320616c72656160448201526d191e481a5b9a5d1a585b1a5e995960921b606482015260840162000d7c565b600054610100900460ff1615801562002eca576000805461ffff19166101011790555b62002ed462003b2f565b603580546001600160a01b03199081166001600160a01b038e8116919091179092556033805482168d84161790556034805482168c84161790556045805482168b84161790556046805490911691891691909117905562002f39888c60001962003962565b603880546001600160a01b038089166001600160a01b031992831617909255603680548884169083161790556037805492871692909116919091179055825162002f8b90605190602086019062004086565b50605280546001600160a01b0319166001600160a01b038416179055801562002fba576000805461ff00191690555b5050505050505050505050565b6000620011a13362001470565b6033546001600160a01b031633146200301d5760405162461bcd60e51b815260206004820152600a60248201526927b7363c9037bbb732b960b11b604482015260640162000d7c565b6045546033546040516370a0823160e01b815230600482015262001b53926001600160a01b0390811692169082906370a082319060240162002de4565b6046546001600160a01b0316620030765762001b5333620004cb565b60465462003090906001600160a01b031633308462003bf0565b62001b53338262000d32565b60518054620030ab90620047d2565b80601f0160208091040260200160405190810160405280929190818152602001828054620030d990620047d2565b80156200312a5780601f10620030fe576101008083540402835291602001916200312a565b820191906000526020600020905b8154815290600101906020018083116200310c57829003601f168201915b505050505081565b6035546001600160a01b03163314806200315657506033546001600160a01b031633145b806200316c57506034546001600160a01b031633145b620031b15760405162461bcd60e51b815260206004820152601460248201527321b0b63632b91034b9b73a1030b71030b236b4b760611b604482015260640162000d7c565b604e544210620031f35760405162461bcd60e51b815260206004820152600c60248201526b14d85b19481cdd185c9d195960a21b604482015260640162000d7c565b6050546001600160a01b0316156200324e5760405162461bcd60e51b815260206004820152601d60248201527f546865726520697320616c726561647920612077686974656c69737421000000604482015260640162000d7c565b6036546037546001600160a01b039182169116600062002a90565b6000604f5442101580620011a15750506047546056541090565b6035546001600160a01b0316331480620032a757506033546001600160a01b031633145b80620032bd57506034546001600160a01b031633145b620033025760405162461bcd60e51b815260206004820152601460248201527321b0b63632b91034b9b73a1030b71030b236b4b760611b604482015260640162000d7c565b605854610100900460ff1662002b62576058805461ff001916610100179055565b6035546001600160a01b03163314806200334757506033546001600160a01b031633145b806200335d57506034546001600160a01b031633145b620033a25760405162461bcd60e51b815260206004820152601460248201527321b0b63632b91034b9b73a1030b71030b236b4b760611b604482015260640162000d7c565b605854610100900460ff161562002b62576058805461ff0019169055565b6000604e544210158015620011a1575050604f54421090565b6035546001600160a01b0316331480620033fd57506033546001600160a01b031633145b806200341357506034546001600160a01b031633145b620034585760405162461bcd60e51b815260206004820152601460248201527321b0b63632b91034b9b73a1030b71030b236b4b760611b604482015260640162000d7c565b605254600160a81b900460ff1615620034b45760405162461bcd60e51b815260206004820152601160248201527f53616c6520686173206c61756e63686564000000000000000000000000000000604482015260640162000d7c565b42604f55605280547fffffffffffffffffff00ffffffffffffffffffffffffffffffffffffffffffff16600160b01b179055603554604051634530ffb760e11b81526001600160a01b0390911690638a61ff6e9062003519906002906004016200475f565b600060405180830381600087803b15801562002b4d57600080fd5b6053546045546040516370a0823160e01b8152306004820152600092916001600160a01b0316906370a0823190602401602060405180830381865afa15801562003582573d6000803e3d6000fd5b505050506040513d601f19601f82011682018060405250810190620035a89190620047b8565b1015905090565b6000620011a13362000b8a565b6033546001600160a01b03163314620036055760405162461bcd60e51b815260206004820152600a60248201526927b7363c9037bbb732b960b11b604482015260640162000d7c565b6033546040516001600160a01b03909116904780156108fc02916000818181858888f1935050505015801562001b53573d6000803e3d6000fd5b604654600090620011cd906200365e906001600160a01b031662003aa6565b6200366b90600a620049e1565b60455462001398906402540be40090829062003690906001600160a01b031662003aa6565b6200369d90600a620049e1565b62001a158989620036c5565b6000620011cd8284620049ef565b6000620011cd82846200479e565b6000620011cd828462004a0a565b6000620011cd828462004a2c565b604080516001600160a01b038416602482015260448082018490528251808303909101815260649091019091526020810180516001600160e01b031663a9059cbb60e01b1790526200146b90849062003d44565b604080516001600160a01b038481166024830152604480830185905283518084039091018152606490920183526020820180516001600160e01b031663a9059cbb60e01b179052915160009283929087169162003793919062004a4f565b6000604051808303816000865af19150503d8060008114620037d2576040519150601f19603f3d011682016040523d82523d6000602084013e620037d7565b606091505b509150915081801562003805575080511580620038055750808060200190518101906200380591906200473f565b620029415760405162461bcd60e51b815260206004820152602d60248201527f5472616e7366657248656c7065723a3a736166655472616e736665723a20747260448201527f616e73666572206661696c656400000000000000000000000000000000000000606482015260840162000d7c565b604080516000808252602082019092526001600160a01b038416908390604051620038a5919062004a4f565b60006040518083038185875af1925050503d8060008114620038e4576040519150601f19603f3d011682016040523d82523d6000602084013e620038e9565b606091505b50509050806200146b5760405162461bcd60e51b815260206004820152603460248201527f5472616e7366657248656c7065723a3a736166655472616e736665724554483a60448201527f20455448207472616e73666572206661696c6564000000000000000000000000606482015260840162000d7c565b604080516001600160a01b038481166024830152604480830185905283518084039091018152606490920183526020820180516001600160e01b031663095ea7b360e01b1790529151600092839290871691620039c0919062004a4f565b6000604051808303816000865af19150503d8060008114620039ff576040519150601f19603f3d011682016040523d82523d6000602084013e62003a04565b606091505b509150915081801562003a3257508051158062003a3257508080602001905181019062003a3291906200473f565b620029415760405162461bcd60e51b815260206004820152602b60248201527f5472616e7366657248656c7065723a3a73616665417070726f76653a2061707060448201527f726f7665206661696c6564000000000000000000000000000000000000000000606482015260840162000d7c565b60006001600160a01b0382161562003b2357816001600160a01b031663313ce5676040518163ffffffff1660e01b8152600401602060405180830381865afa15801562003af7573d6000803e3d6000fd5b505050506040513d601f19601f8201168201806040525081019062003b1d919062004a6d565b62003b26565b60125b60ff1692915050565b600054610100900460ff168062003b49575060005460ff16155b62003bae5760405162461bcd60e51b815260206004820152602e60248201527f496e697469616c697a61626c653a20636f6e747261637420697320616c72656160448201526d191e481a5b9a5d1a585b1a5e995960921b606482015260840162000d7c565b600054610100900460ff1615801562003bd1576000805461ffff19166101011790555b62003bdb62003e30565b801562001b53576000805461ff001916905550565b604080516001600160a01b0385811660248301528481166044830152606480830185905283518084039091018152608490920183526020820180516001600160e01b03166323b872dd60e01b179052915160009283929088169162003c56919062004a4f565b6000604051808303816000865af19150503d806000811462003c95576040519150601f19603f3d011682016040523d82523d6000602084013e62003c9a565b606091505b509150915081801562003cc857508051158062003cc857508080602001905181019062003cc891906200473f565b62003d3c5760405162461bcd60e51b815260206004820152603160248201527f5472616e7366657248656c7065723a3a7472616e7366657246726f6d3a20747260448201527f616e7366657246726f6d206661696c6564000000000000000000000000000000606482015260840162000d7c565b505050505050565b600062003d9b826040518060400160405280602081526020017f5361666545524332303a206c6f772d6c6576656c2063616c6c206661696c6564815250856001600160a01b031662003ee69092919063ffffffff16565b8051909150156200146b578080602001905181019062003dbc91906200473f565b6200146b5760405162461bcd60e51b815260206004820152602a60248201527f5361666545524332303a204552433230206f7065726174696f6e20646964206e60448201527f6f74207375636365656400000000000000000000000000000000000000000000606482015260840162000d7c565b600054610100900460ff168062003e4a575060005460ff16155b62003eaf5760405162461bcd60e51b815260206004820152602e60248201527f496e697469616c697a61626c653a20636f6e747261637420697320616c72656160448201526d191e481a5b9a5d1a585b1a5e995960921b606482015260840162000d7c565b600054610100900460ff1615801562003bdb576000805461ffff1916610101179055801562001b53576000805461ff001916905550565b606062003ef7848460008562003eff565b949350505050565b60608247101562003f795760405162461bcd60e51b815260206004820152602660248201527f416464726573733a20696e73756666696369656e742062616c616e636520666f60448201527f722063616c6c0000000000000000000000000000000000000000000000000000606482015260840162000d7c565b843b62003fc95760405162461bcd60e51b815260206004820152601d60248201527f416464726573733a2063616c6c20746f206e6f6e2d636f6e7472616374000000604482015260640162000d7c565b600080866001600160a01b0316858760405162003fe7919062004a4f565b60006040518083038185875af1925050503d806000811462004026576040519150601f19603f3d011682016040523d82523d6000602084013e6200402b565b606091505b50915091506200403d82828662004048565b979650505050505050565b6060831562004059575081620011cd565b8251156200406a5782518084602001fd5b8160405162461bcd60e51b815260040162000d7c91906200472a565b8280546200409490620047d2565b90600052602060002090601f016020900481019282620040b8576000855562004103565b82601f10620040d357805160ff191683800117855562004103565b8280016001018555821562004103579182015b8281111562004103578251825591602001919060010190620040e6565b506200411192915062004123565b5090565b610f9f8062004a9383390190565b5b8082111562004111576000815560010162004124565b6001600160a01b038116811462001b5357600080fd5b803562001504816200413a565b6000602082840312156200417057600080fd5b8135620011cd816200413a565b60005b838110156200419a57818101518382015260200162004180565b838111156200142d5750506000910152565b60008151808452620041c68160208601602086016200417d565b601f01601f19169290920160200192915050565b60006101a08f83528e60208401528d60408401528c60608401528b60808401528a60a08401528960c08401528860e084015287610100840152861515610120840152851515610140840152841515610160840152806101808401526200424381840185620041ac565b9150509e9d5050505050505050505050505050565b634e487b7160e01b600052604160045260246000fd5b6040516101a0810167ffffffffffffffff8111828210171562004295576200429562004258565b60405290565b604051601f8201601f1916810167ffffffffffffffff81118282101715620042c757620042c762004258565b604052919050565b801515811462001b5357600080fd5b80356200150481620042cf565b600082601f830112620042fd57600080fd5b813567ffffffffffffffff8111156200431a576200431a62004258565b6200432f601f8201601f19166020016200429b565b8181528460208386010111156200434557600080fd5b816020850160208301376000918101602001919091529392505050565b6000602082840312156200437557600080fd5b813567ffffffffffffffff808211156200438e57600080fd5b908301906101a08286031215620043a457600080fd5b620043ae6200426e565b823581526020830135602082015260408301356040820152606083013560608201526080830135608082015260a083013560a082015260c083013560c082015260e083013560e082015261010080840135818301525061012062004414818501620042de565b9082015261014062004428848201620042de565b908201526101606200443c848201620042de565b9082015261018083810135838111156200445557600080fd5b6200446388828701620042eb565b918301919091525095945050505050565b6020815281516020820152602082015160408201526040820151606082015260608201516080820152608082015160a082015260a082015160c082015260c082015160e0820152600060e0830151610100818185015280850151915050610120818185015280850151915050610140620044f18185018315159052565b8401519050610160620045078482018315159052565b84015190506101806200451d8482018315159052565b8401516101a084810152905062003ef76101c0840182620041ac565b600060208083850312156200454d57600080fd5b823567ffffffffffffffff808211156200456657600080fd5b818501915085601f8301126200457b57600080fd5b81358181111562004590576200459062004258565b8060051b9150620045a38483016200429b565b8181529183018401918481019088841115620045be57600080fd5b938501935b83851015620045ec5784359250620045db836200413a565b8282529385019390850190620045c3565b98975050505050505050565b600080604083850312156200460c57600080fd5b50508035926020909101359150565b6000806000806000806000806000806101408b8d0312156200463c57600080fd5b8a3562004649816200413a565b995060208b01356200465b816200413a565b985060408b01356200466d816200413a565b975060608b01356200467f816200413a565b965060808b013562004691816200413a565b9550620046a160a08c0162004150565b9450620046b160c08c0162004150565b9350620046c160e08c0162004150565b92506101008b013567ffffffffffffffff811115620046df57600080fd5b620046ed8d828e01620042eb565b925050620046ff6101208c0162004150565b90509295989b9194979a5092959850565b6000602082840312156200472357600080fd5b5035919050565b602081526000620011cd6020830184620041ac565b6000602082840312156200475257600080fd5b8151620011cd81620042cf565b60208101600583106200478257634e487b7160e01b600052602160045260246000fd5b91905290565b634e487b7160e01b600052601160045260246000fd5b600082821015620047b357620047b362004788565b500390565b600060208284031215620047cb57600080fd5b5051919050565b600181811c90821680620047e757607f821691505b602082108114156200480957634e487b7160e01b600052602260045260246000fd5b50919050565b60006001600160a01b038086168352808516602084015250606060408301526200483d6060830184620041ac565b95945050505050565b6000806000606084860312156200485c57600080fd5b8351925060208401519150604084015190509250925092565b6000602082840312156200488857600080fd5b8151620011cd816200413a565b6020808252825182820181905260009190848201906040850190845b81811015620048d85783516001600160a01b031683529284019291840191600101620048b1565b50909695505050505050565b600181815b808511156200492557816000190482111562004909576200490962004788565b808516156200491757918102915b93841c9390800290620048e9565b509250929050565b6000826200493e57506001620014f6565b816200494d57506000620014f6565b8160018114620049665760028114620049715762004991565b6001915050620014f6565b60ff84111562004985576200498562004788565b50506001821b620014f6565b5060208310610133831016604e8410600b8410161715620049b6575081810a620014f6565b620049c28383620048e4565b8060001904821115620049d957620049d962004788565b029392505050565b6000620011cd83836200492d565b6000821982111562004a055762004a0562004788565b500190565b600081600019048311821515161562004a275762004a2762004788565b500290565b60008262004a4a57634e487b7160e01b600052601260045260246000fd5b500490565b6000825162004a638184602087016200417d565b9190910192915050565b60006020828403121562004a8057600080fd5b815160ff81168114620011cd57600080fdfe608060405260405162000f9f38038062000f9f833981016040819052620000269162000507565b82816200005560017f360894a13ba1a3210667c828492db98dca3e2076cc3735a920a3ca505d382bbd620005e7565b60008051602062000f58833981519152146200007557620000756200060d565b6200008382826000620000e7565b50620000b3905060017fb53127684a568b3173ae13b9f8a6016e243e63b6e8ee1178d6a717850b5d6104620005e7565b60008051602062000f3883398151915214620000d357620000d36200060d565b620000de8262000124565b50505062000676565b620000f2836200017f565b600082511180620001005750805b156200011f576200011d8383620001c160201b620002701760201c565b505b505050565b7f7e644d79422f17c01e4894b5f4f588d331ebfa28653d42ae832dc59e38c9798f6200014f620001f0565b604080516001600160a01b03928316815291841660208301520160405180910390a16200017c8162000229565b50565b6200018a81620002de565b6040516001600160a01b038216907fbc7cd75a20ee27fd9adebab32041f755214dbc6bffa90cc0225b39da2e5c2d3b90600090a250565b6060620001e9838360405180606001604052806027815260200162000f786027913962000381565b9392505050565b60006200021a60008051602062000f3883398151915260001b6200045e60201b620002181760201c565b546001600160a01b0316919050565b6001600160a01b038116620002945760405162461bcd60e51b815260206004820152602660248201527f455243313936373a206e65772061646d696e20697320746865207a65726f206160448201526564647265737360d01b60648201526084015b60405180910390fd5b80620002bd60008051602062000f3883398151915260001b6200045e60201b620002181760201c565b80546001600160a01b0319166001600160a01b039290921691909117905550565b620002f4816200046160201b6200029c1760201c565b620003585760405162461bcd60e51b815260206004820152602d60248201527f455243313936373a206e657720696d706c656d656e746174696f6e206973206e60448201526c1bdd08184818dbdb9d1c9858dd609a1b60648201526084016200028b565b80620002bd60008051602062000f5883398151915260001b6200045e60201b620002181760201c565b6060833b620003e25760405162461bcd60e51b815260206004820152602660248201527f416464726573733a2064656c65676174652063616c6c20746f206e6f6e2d636f6044820152651b9d1c9858dd60d21b60648201526084016200028b565b600080856001600160a01b031685604051620003ff919062000623565b600060405180830381855af49150503d80600081146200043c576040519150601f19603f3d011682016040523d82523d6000602084013e62000441565b606091505b5090925090506200045482828662000467565b9695505050505050565b90565b3b151590565b6060831562000478575081620001e9565b825115620004895782518084602001fd5b8160405162461bcd60e51b81526004016200028b919062000641565b80516001600160a01b0381168114620004bd57600080fd5b919050565b634e487b7160e01b600052604160045260246000fd5b60005b83811015620004f5578181015183820152602001620004db565b838111156200011d5750506000910152565b6000806000606084860312156200051d57600080fd5b6200052884620004a5565b92506200053860208501620004a5565b60408501519092506001600160401b03808211156200055657600080fd5b818601915086601f8301126200056b57600080fd5b815181811115620005805762000580620004c2565b604051601f8201601f19908116603f01168101908382118183101715620005ab57620005ab620004c2565b81604052828152896020848701011115620005c557600080fd5b620005d8836020830160208801620004d8565b80955050505050509250925092565b6000828210156200060857634e487b7160e01b600052601160045260246000fd5b500390565b634e487b7160e01b600052600160045260246000fd5b6000825162000637818460208701620004d8565b9190910192915050565b602081526000825180602084015262000662816040850160208701620004d8565b601f01601f19169190910160400192915050565b6108b280620006866000396000f3fe60806040526004361061005e5760003560e01c80635c60da1b116100435780635c60da1b146100a85780638f283970146100d9578063f851a440146100f95761006d565b80633659cfe6146100755780634f1ef286146100955761006d565b3661006d5761006b61010e565b005b61006b61010e565b34801561008157600080fd5b5061006b61009036600461073c565b610128565b61006b6100a3366004610757565b61016f565b3480156100b457600080fd5b506100bd6101e0565b6040516001600160a01b03909116815260200160405180910390f35b3480156100e557600080fd5b5061006b6100f436600461073c565b61021b565b34801561010557600080fd5b506100bd610245565b6101166102a2565b610126610121610341565b61034b565b565b61013061036f565b6001600160a01b0316336001600160a01b0316141561016757610164816040518060200160405280600081525060006103a2565b50565b61016461010e565b61017761036f565b6001600160a01b0316336001600160a01b031614156101d8576101d38383838080601f016020809104026020016040519081016040528093929190818152602001838380828437600092019190915250600192506103a2915050565b505050565b6101d361010e565b60006101ea61036f565b6001600160a01b0316336001600160a01b031614156102105761020b610341565b905090565b61021861010e565b90565b61022361036f565b6001600160a01b0316336001600160a01b0316141561016757610164816103cd565b600061024f61036f565b6001600160a01b0316336001600160a01b031614156102105761020b61036f565b6060610295838360405180606001604052806027815260200161085660279139610421565b9392505050565b3b151590565b6102aa61036f565b6001600160a01b0316336001600160a01b031614156101265760405162461bcd60e51b815260206004820152604260248201527f5472616e73706172656e745570677261646561626c6550726f78793a2061646d60448201527f696e2063616e6e6f742066616c6c6261636b20746f2070726f78792074617267606482015261195d60f21b608482015260a4015b60405180910390fd5b600061020b61050c565b3660008037600080366000845af43d6000803e80801561036a573d6000f35b3d6000fd5b60007fb53127684a568b3173ae13b9f8a6016e243e63b6e8ee1178d6a717850b5d61035b546001600160a01b0316919050565b6103ab83610534565b6000825111806103b85750805b156101d3576103c78383610270565b50505050565b7f7e644d79422f17c01e4894b5f4f588d331ebfa28653d42ae832dc59e38c9798f6103f661036f565b604080516001600160a01b03928316815291841660208301520160405180910390a161016481610574565b6060833b6104975760405162461bcd60e51b815260206004820152602660248201527f416464726573733a2064656c65676174652063616c6c20746f206e6f6e2d636f60448201527f6e747261637400000000000000000000000000000000000000000000000000006064820152608401610338565b600080856001600160a01b0316856040516104b29190610806565b600060405180830381855af49150503d80600081146104ed576040519150601f19603f3d011682016040523d82523d6000602084013e6104f2565b606091505b509150915061050282828661064c565b9695505050505050565b60007f360894a13ba1a3210667c828492db98dca3e2076cc3735a920a3ca505d382bbc610393565b61053d81610685565b6040516001600160a01b038216907fbc7cd75a20ee27fd9adebab32041f755214dbc6bffa90cc0225b39da2e5c2d3b90600090a250565b6001600160a01b0381166105f05760405162461bcd60e51b815260206004820152602660248201527f455243313936373a206e65772061646d696e20697320746865207a65726f206160448201527f64647265737300000000000000000000000000000000000000000000000000006064820152608401610338565b807fb53127684a568b3173ae13b9f8a6016e243e63b6e8ee1178d6a717850b5d61035b80547fffffffffffffffffffffffff0000000000000000000000000000000000000000166001600160a01b039290921691909117905550565b6060831561065b575081610295565b82511561066b5782518084602001fd5b8160405162461bcd60e51b81526004016103389190610822565b803b6106f95760405162461bcd60e51b815260206004820152602d60248201527f455243313936373a206e657720696d706c656d656e746174696f6e206973206e60448201527f6f74206120636f6e7472616374000000000000000000000000000000000000006064820152608401610338565b807f360894a13ba1a3210667c828492db98dca3e2076cc3735a920a3ca505d382bbc610613565b80356001600160a01b038116811461073757600080fd5b919050565b60006020828403121561074e57600080fd5b61029582610720565b60008060006040848603121561076c57600080fd5b61077584610720565b9250602084013567ffffffffffffffff8082111561079257600080fd5b818601915086601f8301126107a657600080fd5b8135818111156107b557600080fd5b8760208285010111156107c757600080fd5b6020830194508093505050509250925092565b60005b838110156107f55781810151838201526020016107dd565b838111156103c75750506000910152565b600082516108188184602087016107da565b9190910192915050565b60208152600082518060208401526108418160408501602087016107da565b601f01601f1916919091016040019291505056fe416464726573733a206c6f772d6c6576656c2064656c65676174652063616c6c206661696c6564a26469706673582212204ef1142f9f0499ce6511923c35ef8d04a0c6d037c02906896aa0b903bafc017164736f6c634300080b0033b53127684a568b3173ae13b9f8a6016e243e63b6e8ee1178d6a717850b5d6103360894a13ba1a3210667c828492db98dca3e2076cc3735a920a3ca505d382bbc416464726573733a206c6f772d6c6576656c2064656c65676174652063616c6c206661696c6564a2646970667358221220bb082f3e103dac4827c383c4b6ac1be737219b567c01a6993e3088a3650b85f764736f6c634300080b0033",
  "devdoc": {
    "kind": "dev",
    "methods": {
      "deposit(uint256)": {
        "details": "This entitles _msgSender() to (amount * presaleRate) after a successful sale"
      },
      "earlyWithdraw()": {
        "details": "This incurs a tax, where Reflex will take a cut of this tax"
      },
      "withdraw()": {
        "details": "This entitles _msgSender() to (amount * presaleRate) after a successful sale"
      }
    },
    "version": 1
  },
  "userdoc": {
    "kind": "user",
    "methods": {
      "configure((uint256,uint256,uint256,uint256,uint256,uint256,uint256,uint256,uint256,bool,bool,bool,string))": {
        "notice": "Configure a reflex sale"
      },
      "deposit(uint256)": {
        "notice": "For users to deposit into the sale"
      },
      "earlyWithdraw()": {
        "notice": "For users to withdraw their deposited funds before the sale has been concluded"
      },
      "emergencyWithdrawBNB()": {
        "notice": "Withdraws BNB from the contract"
      },
      "emergencyWithdrawTokens(address)": {
        "notice": "Withdraws tokens that are stuck"
      },
      "exchangeRouter()": {
        "notice": "The address of the reflexRouter"
      },
      "finalize()": {
        "notice": "Finishes the sale, and if successful launches to PancakeSwap"
      },
      "lpToken()": {
        "notice": "The address of the LP token"
      },
      "owner()": {
        "notice": "The ReflexRouter owner"
      },
      "prepared()": {
        "notice": "State Settings"
      },
      "proxyAdmin()": {
        "notice": "The address of the proxy admin"
      },
      "reclaim()": {
        "notice": "EMERGENCY USE ONLY: Lets the owner of the sale reclaim any stuck funds"
      },
      "reflexRouter()": {
        "notice": "The ReflexRouter"
      },
      "runner()": {
        "notice": "The person running the sale"
      },
      "tokenA()": {
        "notice": "Configuration"
      },
      "totalTokens()": {
        "notice": "Current Status - These are modified after a sale has been setup and is running"
      },
      "whitelistImpl()": {
        "notice": "The address of the whitelist implementation"
      },
      "withdraw()": {
        "notice": "For users to withdraw from a sale"
      }
    },
    "notice": "A Reflex Sale",
    "version": 1
  },
  "storageLayout": {
    "storage": [
      {
        "astId": 130,
        "contract": "contracts/ReflexSale01.sol:ReflexSale01",
        "label": "_initialized",
        "offset": 0,
        "slot": "0",
        "type": "t_bool"
      },
      {
        "astId": 133,
        "contract": "contracts/ReflexSale01.sol:ReflexSale01",
        "label": "_initializing",
        "offset": 1,
        "slot": "0",
        "type": "t_bool"
      },
      {
        "astId": 758,
        "contract": "contracts/ReflexSale01.sol:ReflexSale01",
        "label": "__gap",
        "offset": 0,
        "slot": "1",
        "type": "t_array(t_uint256)50_storage"
      },
      {
        "astId": 3403,
        "contract": "contracts/ReflexSale01.sol:ReflexSale01",
        "label": "owner",
        "offset": 0,
        "slot": "51",
        "type": "t_address"
      },
      {
        "astId": 3406,
        "contract": "contracts/ReflexSale01.sol:ReflexSale01",
        "label": "runner",
        "offset": 0,
        "slot": "52",
        "type": "t_address"
      },
      {
        "astId": 3410,
        "contract": "contracts/ReflexSale01.sol:ReflexSale01",
        "label": "reflexRouter",
        "offset": 0,
        "slot": "53",
        "type": "t_contract(IReflexRouter01)5981"
      },
      {
        "astId": 3413,
        "contract": "contracts/ReflexSale01.sol:ReflexSale01",
        "label": "whitelistImpl",
        "offset": 0,
        "slot": "54",
        "type": "t_address"
      },
      {
        "astId": 3416,
        "contract": "contracts/ReflexSale01.sol:ReflexSale01",
        "label": "proxyAdmin",
        "offset": 0,
        "slot": "55",
        "type": "t_address"
      },
      {
        "astId": 3420,
        "contract": "contracts/ReflexSale01.sol:ReflexSale01",
        "label": "exchangeRouter",
        "offset": 0,
        "slot": "56",
        "type": "t_contract(IUniswapV2Router02)6552"
      },
      {
        "astId": 3423,
        "contract": "contracts/ReflexSale01.sol:ReflexSale01",
        "label": "lpToken",
        "offset": 0,
        "slot": "57",
        "type": "t_address"
      },
      {
        "astId": 3426,
        "contract": "contracts/ReflexSale01.sol:ReflexSale01",
        "label": "saleParams",
        "offset": 0,
        "slot": "58",
        "type": "t_struct(SaleParams)6010_storage"
      },
      {
        "astId": 3429,
        "contract": "contracts/ReflexSale01.sol:ReflexSale01",
        "label": "tokenA",
        "offset": 0,
        "slot": "69",
        "type": "t_address"
      },
      {
        "astId": 3431,
        "contract": "contracts/ReflexSale01.sol:ReflexSale01",
        "label": "tokenB",
        "offset": 0,
        "slot": "70",
        "type": "t_address"
      },
      {
        "astId": 3433,
        "contract": "contracts/ReflexSale01.sol:ReflexSale01",
        "label": "softCap",
        "offset": 0,
        "slot": "71",
        "type": "t_uint256"
      },
      {
        "astId": 3435,
        "contract": "contracts/ReflexSale01.sol:ReflexSale01",
        "label": "hardCap",
        "offset": 0,
        "slot": "72",
        "type": "t_uint256"
      },
      {
        "astId": 3437,
        "contract": "contracts/ReflexSale01.sol:ReflexSale01",
        "label": "min",
        "offset": 0,
        "slot": "73",
        "type": "t_uint256"
      },
      {
        "astId": 3439,
        "contract": "contracts/ReflexSale01.sol:ReflexSale01",
        "label": "max",
        "offset": 0,
        "slot": "74",
        "type": "t_uint256"
      },
      {
        "astId": 3441,
        "contract": "contracts/ReflexSale01.sol:ReflexSale01",
        "label": "presaleRate",
        "offset": 0,
        "slot": "75",
        "type": "t_uint256"
      },
      {
        "astId": 3443,
        "contract": "contracts/ReflexSale01.sol:ReflexSale01",
        "label": "listingRate",
        "offset": 0,
        "slot": "76",
        "type": "t_uint256"
      },
      {
        "astId": 3445,
        "contract": "contracts/ReflexSale01.sol:ReflexSale01",
        "label": "liquidity",
        "offset": 0,
        "slot": "77",
        "type": "t_uint256"
      },
      {
        "astId": 3447,
        "contract": "contracts/ReflexSale01.sol:ReflexSale01",
        "label": "start",
        "offset": 0,
        "slot": "78",
        "type": "t_uint256"
      },
      {
        "astId": 3449,
        "contract": "contracts/ReflexSale01.sol:ReflexSale01",
        "label": "end",
        "offset": 0,
        "slot": "79",
        "type": "t_uint256"
      },
      {
        "astId": 3451,
        "contract": "contracts/ReflexSale01.sol:ReflexSale01",
        "label": "whitelist",
        "offset": 0,
        "slot": "80",
        "type": "t_address"
      },
      {
        "astId": 3453,
        "contract": "contracts/ReflexSale01.sol:ReflexSale01",
        "label": "burn",
        "offset": 20,
        "slot": "80",
        "type": "t_bool"
      },
      {
        "astId": 3455,
        "contract": "contracts/ReflexSale01.sol:ReflexSale01",
        "label": "privateSale",
        "offset": 21,
        "slot": "80",
        "type": "t_bool"
      },
      {
        "astId": 3457,
        "contract": "contracts/ReflexSale01.sol:ReflexSale01",
        "label": "metaInfo",
        "offset": 0,
        "slot": "81",
        "type": "t_string_storage"
      },
      {
        "astId": 3459,
        "contract": "contracts/ReflexSale01.sol:ReflexSale01",
        "label": "treasury",
        "offset": 0,
        "slot": "82",
        "type": "t_address"
      },
      {
        "astId": 3462,
        "contract": "contracts/ReflexSale01.sol:ReflexSale01",
        "label": "prepared",
        "offset": 20,
        "slot": "82",
        "type": "t_bool"
      },
      {
        "astId": 3464,
        "contract": "contracts/ReflexSale01.sol:ReflexSale01",
        "label": "launched",
        "offset": 21,
        "slot": "82",
        "type": "t_bool"
      },
      {
        "astId": 3466,
        "contract": "contracts/ReflexSale01.sol:ReflexSale01",
        "label": "canceled",
        "offset": 22,
        "slot": "82",
        "type": "t_bool"
      },
      {
        "astId": 3469,
        "contract": "contracts/ReflexSale01.sol:ReflexSale01",
        "label": "totalTokens",
        "offset": 0,
        "slot": "83",
        "type": "t_uint256"
      },
      {
        "astId": 3471,
        "contract": "contracts/ReflexSale01.sol:ReflexSale01",
        "label": "saleAmount",
        "offset": 0,
        "slot": "84",
        "type": "t_uint256"
      },
      {
        "astId": 3473,
        "contract": "contracts/ReflexSale01.sol:ReflexSale01",
        "label": "liquidityAmount",
        "offset": 0,
        "slot": "85",
        "type": "t_uint256"
      },
      {
        "astId": 3475,
        "contract": "contracts/ReflexSale01.sol:ReflexSale01",
        "label": "raised",
        "offset": 0,
        "slot": "86",
        "type": "t_uint256"
      },
      {
        "astId": 3479,
        "contract": "contracts/ReflexSale01.sol:ReflexSale01",
        "label": "_deposited",
        "offset": 0,
        "slot": "87",
        "type": "t_mapping(t_address,t_uint256)"
      },
      {
        "astId": 3481,
        "contract": "contracts/ReflexSale01.sol:ReflexSale01",
        "label": "isSaleUpdateApproved",
        "offset": 0,
        "slot": "88",
        "type": "t_bool"
      },
      {
        "astId": 3483,
        "contract": "contracts/ReflexSale01.sol:ReflexSale01",
        "label": "isWhitelistEnabled",
        "offset": 1,
        "slot": "88",
        "type": "t_bool"
      }
    ],
    "types": {
      "t_address": {
        "encoding": "inplace",
        "label": "address",
        "numberOfBytes": "20"
      },
      "t_array(t_uint256)50_storage": {
        "base": "t_uint256",
        "encoding": "inplace",
        "label": "uint256[50]",
        "numberOfBytes": "1600"
      },
      "t_bool": {
        "encoding": "inplace",
        "label": "bool",
        "numberOfBytes": "1"
      },
      "t_contract(IReflexRouter01)5981": {
        "encoding": "inplace",
        "label": "contract IReflexRouter01",
        "numberOfBytes": "20"
      },
      "t_contract(IUniswapV2Router02)6552": {
        "encoding": "inplace",
        "label": "contract IUniswapV2Router02",
        "numberOfBytes": "20"
      },
      "t_mapping(t_address,t_uint256)": {
        "encoding": "mapping",
        "key": "t_address",
        "label": "mapping(address => uint256)",
        "numberOfBytes": "32",
        "value": "t_uint256"
      },
      "t_string_storage": {
        "encoding": "bytes",
        "label": "string",
        "numberOfBytes": "32"
      },
      "t_struct(SaleParams)6010_storage": {
        "encoding": "inplace",
        "label": "struct IReflexSale01.SaleParams",
        "members": [
          {
            "astId": 5985,
            "contract": "contracts/ReflexSale01.sol:ReflexSale01",
            "label": "soft",
            "offset": 0,
            "slot": "0",
            "type": "t_uint256"
          },
          {
            "astId": 5987,
            "contract": "contracts/ReflexSale01.sol:ReflexSale01",
            "label": "hard",
            "offset": 0,
            "slot": "1",
            "type": "t_uint256"
          },
          {
            "astId": 5989,
            "contract": "contracts/ReflexSale01.sol:ReflexSale01",
            "label": "min",
            "offset": 0,
            "slot": "2",
            "type": "t_uint256"
          },
          {
            "astId": 5991,
            "contract": "contracts/ReflexSale01.sol:ReflexSale01",
            "label": "max",
            "offset": 0,
            "slot": "3",
            "type": "t_uint256"
          },
          {
            "astId": 5993,
            "contract": "contracts/ReflexSale01.sol:ReflexSale01",
            "label": "presaleRate",
            "offset": 0,
            "slot": "4",
            "type": "t_uint256"
          },
          {
            "astId": 5995,
            "contract": "contracts/ReflexSale01.sol:ReflexSale01",
            "label": "listingRate",
            "offset": 0,
            "slot": "5",
            "type": "t_uint256"
          },
          {
            "astId": 5997,
            "contract": "contracts/ReflexSale01.sol:ReflexSale01",
            "label": "liquidity",
            "offset": 0,
            "slot": "6",
            "type": "t_uint256"
          },
          {
            "astId": 5999,
            "contract": "contracts/ReflexSale01.sol:ReflexSale01",
            "label": "start",
            "offset": 0,
            "slot": "7",
            "type": "t_uint256"
          },
          {
            "astId": 6001,
            "contract": "contracts/ReflexSale01.sol:ReflexSale01",
            "label": "end",
            "offset": 0,
            "slot": "8",
            "type": "t_uint256"
          },
          {
            "astId": 6003,
            "contract": "contracts/ReflexSale01.sol:ReflexSale01",
            "label": "whitelisted",
            "offset": 0,
            "slot": "9",
            "type": "t_bool"
          },
          {
            "astId": 6005,
            "contract": "contracts/ReflexSale01.sol:ReflexSale01",
            "label": "burn",
            "offset": 1,
            "slot": "9",
            "type": "t_bool"
          },
          {
            "astId": 6007,
            "contract": "contracts/ReflexSale01.sol:ReflexSale01",
            "label": "privateSale",
            "offset": 2,
            "slot": "9",
            "type": "t_bool"
          },
          {
            "astId": 6009,
            "contract": "contracts/ReflexSale01.sol:ReflexSale01",
            "label": "metaInfo",
            "offset": 0,
            "slot": "10",
            "type": "t_string_storage"
          }
        ],
        "numberOfBytes": "352"
      },
      "t_uint256": {
        "encoding": "inplace",
        "label": "uint256",
        "numberOfBytes": "32"
      }
    }
  }
}