{
  "address": "0x2694AbD2769Eb8734c1459f93170937CC9361C02",
  "abi": [
    {
      "anonymous": false,
      "inputs": [
        {
          "indexed": true,
          "internalType": "address",
          "name": "previousOwner",
          "type": "address"
        },
        {
          "indexed": true,
          "internalType": "address",
          "name": "newOwner",
          "type": "address"
        }
      ],
      "name": "OwnershipTransferred",
      "type": "event"
    },
    {
      "anonymous": false,
      "inputs": [
        {
          "indexed": true,
          "internalType": "address",
          "name": "runner",
          "type": "address"
        },
        {
          "indexed": true,
          "internalType": "address",
          "name": "sale",
          "type": "address"
        }
      ],
      "name": "SaleCreated",
      "type": "event"
    },
    {
      "anonymous": false,
      "inputs": [
        {
          "indexed": true,
          "internalType": "address",
          "name": "sale",
          "type": "address"
        },
        {
          "indexed": true,
          "internalType": "enum ReflexRouter01.SaleStatus",
          "name": "status",
          "type": "uint8"
        }
      ],
      "name": "StatusChanged",
      "type": "event"
    },
    {
      "inputs": [
        {
          "internalType": "address",
          "name": "token",
          "type": "address"
        },
        {
          "internalType": "address",
          "name": "fundToken",
          "type": "address"
        },
        {
          "components": [
            {
              "internalType": "uint256",
              "name": "soft",
              "type": "uint256"
            },
            {
              "internalType": "uint256",
              "name": "hard",
              "type": "uint256"
            },
            {
              "internalType": "uint256",
              "name": "min",
              "type": "uint256"
            },
            {
              "internalType": "uint256",
              "name": "max",
              "type": "uint256"
            },
            {
              "internalType": "uint256",
              "name": "presaleRate",
              "type": "uint256"
            },
            {
              "internalType": "uint256",
              "name": "listingRate",
              "type": "uint256"
            },
            {
              "internalType": "uint256",
              "name": "liquidity",
              "type": "uint256"
            },
            {
              "internalType": "uint256",
              "name": "start",
              "type": "uint256"
            },
            {
              "internalType": "uint256",
              "name": "end",
              "type": "uint256"
            },
            {
              "internalType": "bool",
              "name": "whitelisted",
              "type": "bool"
            },
            {
              "internalType": "bool",
              "name": "burn",
              "type": "bool"
            },
            {
              "internalType": "bool",
              "name": "privateSale",
              "type": "bool"
            },
            {
              "internalType": "string",
              "name": "metaInfo",
              "type": "string"
            }
          ],
          "internalType": "struct IReflexSale01.SaleParams",
          "name": "saleParams",
          "type": "tuple"
        }
      ],
      "name": "createSale",
      "outputs": [],
      "stateMutability": "payable",
      "type": "function"
    },
    {
      "inputs": [],
      "name": "earlyWithdrawPenalty",
      "outputs": [
        {
          "internalType": "uint256",
          "name": "",
          "type": "uint256"
        }
      ],
      "stateMutability": "view",
      "type": "function"
    },
    {
      "inputs": [
        {
          "internalType": "address",
          "name": "",
          "type": "address"
        }
      ],
      "name": "feePaid",
      "outputs": [
        {
          "internalType": "bool",
          "name": "",
          "type": "bool"
        }
      ],
      "stateMutability": "view",
      "type": "function"
    },
    {
      "inputs": [],
      "name": "getSale",
      "outputs": [
        {
          "internalType": "address",
          "name": "",
          "type": "address"
        },
        {
          "internalType": "bool",
          "name": "",
          "type": "bool"
        },
        {
          "internalType": "address",
          "name": "",
          "type": "address"
        }
      ],
      "stateMutability": "view",
      "type": "function"
    },
    {
      "inputs": [
        {
          "internalType": "address",
          "name": "owner",
          "type": "address"
        }
      ],
      "name": "getSaleByOwner",
      "outputs": [
        {
          "internalType": "address",
          "name": "",
          "type": "address"
        },
        {
          "internalType": "bool",
          "name": "",
          "type": "bool"
        },
        {
          "internalType": "address",
          "name": "",
          "type": "address"
        }
      ],
      "stateMutability": "view",
      "type": "function"
    },
    {
      "inputs": [
        {
          "internalType": "contract IReflexSettings",
          "name": "_settings",
          "type": "address"
        }
      ],
      "name": "initialize",
      "outputs": [],
      "stateMutability": "nonpayable",
      "type": "function"
    },
    {
      "inputs": [
        {
          "internalType": "address payable",
          "name": "_sale",
          "type": "address"
        },
        {
          "internalType": "uint256",
          "name": "_raised",
          "type": "uint256"
        },
        {
          "internalType": "uint256",
          "name": "_participants",
          "type": "uint256"
        }
      ],
      "name": "launched",
      "outputs": [],
      "stateMutability": "nonpayable",
      "type": "function"
    },
    {
      "inputs": [],
      "name": "launchingFeeInTokenA",
      "outputs": [
        {
          "internalType": "uint256",
          "name": "",
          "type": "uint256"
        }
      ],
      "stateMutability": "view",
      "type": "function"
    },
    {
      "inputs": [],
      "name": "launchingFeeInTokenB",
      "outputs": [
        {
          "internalType": "uint256",
          "name": "",
          "type": "uint256"
        }
      ],
      "stateMutability": "view",
      "type": "function"
    },
    {
      "inputs": [],
      "name": "listingFee",
      "outputs": [
        {
          "internalType": "uint256",
          "name": "",
          "type": "uint256"
        }
      ],
      "stateMutability": "view",
      "type": "function"
    },
    {
      "inputs": [
        {
          "internalType": "enum ReflexRouter01.SaleStatus",
          "name": "status",
          "type": "uint8"
        }
      ],
      "name": "onStatusChange",
      "outputs": [],
      "stateMutability": "nonpayable",
      "type": "function"
    },
    {
      "inputs": [],
      "name": "owner",
      "outputs": [
        {
          "internalType": "address",
          "name": "",
          "type": "address"
        }
      ],
      "stateMutability": "view",
      "type": "function"
    },
    {
      "inputs": [],
      "name": "payFee",
      "outputs": [],
      "stateMutability": "payable",
      "type": "function"
    },
    {
      "inputs": [],
      "name": "reflexSettings",
      "outputs": [
        {
          "internalType": "contract IReflexSettings",
          "name": "",
          "type": "address"
        }
      ],
      "stateMutability": "view",
      "type": "function"
    },
    {
      "inputs": [],
      "name": "renounceOwnership",
      "outputs": [],
      "stateMutability": "nonpayable",
      "type": "function"
    },
    {
      "inputs": [
        {
          "internalType": "address",
          "name": "account",
          "type": "address"
        }
      ],
      "name": "resetFee",
      "outputs": [],
      "stateMutability": "nonpayable",
      "type": "function"
    },
    {
      "inputs": [
        {
          "internalType": "address",
          "name": "",
          "type": "address"
        }
      ],
      "name": "sales",
      "outputs": [
        {
          "internalType": "contract ReflexSale01",
          "name": "",
          "type": "address"
        }
      ],
      "stateMutability": "view",
      "type": "function"
    },
    {
      "inputs": [
        {
          "internalType": "contract IReflexSettings",
          "name": "_settings",
          "type": "address"
        }
      ],
      "name": "setReflexSettings",
      "outputs": [],
      "stateMutability": "nonpayable",
      "type": "function"
    },
    {
      "inputs": [
        {
          "internalType": "address",
          "name": "_runner",
          "type": "address"
        }
      ],
      "name": "setSaleUpdateApprove",
      "outputs": [],
      "stateMutability": "nonpayable",
      "type": "function"
    },
    {
      "inputs": [
        {
          "internalType": "address",
          "name": "newOwner",
          "type": "address"
        }
      ],
      "name": "transferOwnership",
      "outputs": [],
      "stateMutability": "nonpayable",
      "type": "function"
    },
    {
      "inputs": [],
      "name": "treasury",
      "outputs": [
        {
          "internalType": "address",
          "name": "",
          "type": "address"
        }
      ],
      "stateMutability": "view",
      "type": "function"
    },
    {
      "inputs": [
        {
          "internalType": "uint256",
          "name": "amount",
          "type": "uint256"
        }
      ],
      "name": "withdrawBNB",
      "outputs": [],
      "stateMutability": "nonpayable",
      "type": "function"
    },
    {
      "stateMutability": "payable",
      "type": "receive"
    }
  ],
  "transactionHash": "0xdaa88c67ee7b5d2f211d9dc737db0c36c18b2cd88ba5885e985eab34717506f7",
  "args": [],
  "numDeployments": 5,
  "solcInputHash": "388c52f916a6baeeb49eff51378fabad",
  "bytecode": "0x608060405234801561001057600080fd5b50613196806100206000396000f3fe608060405260043610620001975760003560e01c806374982e6211620000db578063c6b9f06a1162000089578063e45edf971162000060578063e45edf9714620004a8578063e6fd885f14620004bf578063f2fde38b14620004d757600080fd5b8063c6b9f06a1462000431578063d29004d9146200046b578063d86daab1146200048357600080fd5b80638da5cb5b11620000be5780638da5cb5b14620003c7578063bead9f5014620003e7578063c4d66de8146200040c57600080fd5b806374982e62146200038a5780638a61ff6e14620003a257600080fd5b806329610252116200014557806361d027b3116200011c57806361d027b314620003295780636a1b7ecc146200034b578063715018a6146200037257600080fd5b80632961025214620002a157806338bf88ef14620002ab5780634d94d27714620002ee57600080fd5b80631a561d7d116200017a5780631a561d7d14620002125780631e1ba6a7146200025757806322a91631146200027c57600080fd5b80630bae328814620001a4578063127f4b2e14620001eb57600080fd5b366200019f57005b600080fd5b348015620001b157600080fd5b50620001bc620004fc565b604080516001600160a01b03948516815292151560208401529216918101919091526060015b60405180910390f35b348015620001f857600080fd5b50620002106200020a36600462001c63565b62000516565b005b3480156200021f57600080fd5b50620002466200023136600462001c93565b60686020526000908152604090205460ff1681565b6040519015158152602001620001e2565b3480156200026457600080fd5b50620002106200027636600462001c93565b620005f8565b3480156200028957600080fd5b50620002106200029b36600462001cb3565b62000676565b620002106200080f565b348015620002b857600080fd5b50620001bc620002ca36600462001c93565b6001600160a01b038181166000908152606760205260409020549192911680151591565b348015620002fb57600080fd5b5060655462000310906001600160a01b031681565b6040516001600160a01b039091168152602001620001e2565b3480156200033657600080fd5b5060665462000310906001600160a01b031681565b3480156200035857600080fd5b50620003636200092b565b604051908152602001620001e2565b3480156200037f57600080fd5b5062000210620009a1565b3480156200039757600080fd5b506200036362000a0b565b348015620003af57600080fd5b5062000210620003c136600462001ceb565b62000a56565b348015620003d457600080fd5b506033546001600160a01b031662000310565b348015620003f457600080fd5b50620002106200040636600462001c93565b62000a99565b3480156200041957600080fd5b50620002106200042b36600462001c93565b62000bc3565b3480156200043e57600080fd5b50620003106200045036600462001c93565b6067602052600090815260409020546001600160a01b031681565b3480156200047857600080fd5b506200036362000d25565b3480156200049057600080fd5b5062000210620004a236600462001c93565b62000d70565b62000210620004b936600462001e07565b62000ded565b348015620004cc57600080fd5b506200036362001545565b348015620004e457600080fd5b5062000210620004f636600462001c93565b62001590565b600080806200050b33620002ca565b925092509250909192565b6033546001600160a01b03163314620005765760405162461bcd60e51b815260206004820181905260248201527f4f776e61626c653a2063616c6c6572206973206e6f7420746865206f776e657260448201526064015b60405180910390fd5b80620005ba576033546040516001600160a01b03909116904780156108fc02916000818181858888f19350505050158015620005b6573d6000803e3d6000fd5b5050565b6033546040516001600160a01b039091169082156108fc029083906000818181858888f19350505050158015620005b6573d6000803e3d6000fd5b50565b6033546001600160a01b03163314620006545760405162461bcd60e51b815260206004820181905260248201527f4f776e61626c653a2063616c6c6572206973206e6f7420746865206f776e657260448201526064016200056d565b606580546001600160a01b0319166001600160a01b0392909216919091179055565b336000908152606760205260409020546001600160a01b03848116911614620006e25760405162461bcd60e51b815260206004820152601560248201527f4d757374206265206f776e6572206f662073616c65000000000000000000000060448201526064016200056d565b6000839050806001600160a01b0316638091f3bf6040518163ffffffff1660e01b8152600401602060405180830381865afa15801562000726573d6000803e3d6000fd5b505050506040513d601f19601f820116820180604052508101906200074c919062001f42565b6200079a5760405162461bcd60e51b815260206004820152601860248201527f53616c65206d7573742068617665206c61756e6368656421000000000000000060448201526064016200056d565b606554604051633ba8849d60e21b81526001600160a01b03868116600483015260248201869052604482018590529091169063eea2127490606401600060405180830381600087803b158015620007f057600080fd5b505af115801562000805573d6000803e3d6000fd5b5050505050505050565b60655460408051631a86dfb360e21b815290516000926001600160a01b031691636a1b7ecc9160048083019260209291908290030181865afa1580156200085a573d6000803e3d6000fd5b505050506040513d601f19601f8201168201806040525081019062000880919062001f62565b9050803414620008d35760405162461bcd60e51b815260206004820152601160248201527f424e422066656520696e636f727265637400000000000000000000000000000060448201526064016200056d565b6066546040516001600160a01b03909116903480156108fc02916000818181858888f193505050501580156200090d573d6000803e3d6000fd5b5050336000908152606860205260409020805460ff19166001179055565b60655460408051631a86dfb360e21b815290516000926001600160a01b031691636a1b7ecc9160048083019260209291908290030181865afa15801562000976573d6000803e3d6000fd5b505050506040513d601f19601f820116820180604052508101906200099c919062001f62565b905090565b6033546001600160a01b03163314620009fd5760405162461bcd60e51b815260206004820181905260248201527f4f776e61626c653a2063616c6c6572206973206e6f7420746865206f776e657260448201526064016200056d565b62000a09600062001670565b565b60655460408051633a4c173160e11b815290516000926001600160a01b0316916374982e629160048083019260209291908290030181865afa15801562000976573d6000803e3d6000fd5b80600481111562000a6b5762000a6b62001f7c565b60405133907f76c0bad3b7f1c74587dcb478154d4c87ae6663db97cc086b981decf4e35a797c90600090a350565b6065546040516330b5c93360e01b81523360048201526001600160a01b03909116906330b5c93390602401602060405180830381865afa15801562000ae2573d6000803e3d6000fd5b505050506040513d601f19601f8201168201806040525081019062000b08919062001f42565b62000b565760405162461bcd60e51b815260206004820152601460248201527f6f6e6c79207265666c657820617070726f76657200000000000000000000000060448201526064016200056d565b6001600160a01b03808216600090815260676020526040808220548151630c9f428960e11b8152915193169263193e85129260048084019391929182900301818387803b15801562000ba757600080fd5b505af115801562000bbc573d6000803e3d6000fd5b5050505050565b600054610100900460ff168062000bdd575060005460ff16155b62000c425760405162461bcd60e51b815260206004820152602e60248201527f496e697469616c697a61626c653a20636f6e747261637420697320616c72656160448201526d191e481a5b9a5d1a585b1a5e995960921b60648201526084016200056d565b600054610100900460ff1615801562000c65576000805461ffff19166101011790555b62000c6f620016c2565b606580546001600160a01b0319166001600160a01b038416908117909155604080516361d027b360e01b815290516361d027b3916004808201926020929091908290030181865afa15801562000cc9573d6000803e3d6000fd5b505050506040513d601f19601f8201168201806040525081019062000cef919062001f92565b606680546001600160a01b0319166001600160a01b03929092169190911790558015620005b6576000805461ff00191690555050565b6065546040805163d29004d960e01b815290516000926001600160a01b03169163d29004d99160048083019260209291908290030181865afa15801562000976573d6000803e3d6000fd5b6033546001600160a01b0316331462000dcc5760405162461bcd60e51b815260206004820181905260248201527f4f776e61626c653a2063616c6c6572206973206e6f7420746865206f776e657260448201526064016200056d565b6001600160a01b03166000908152606860205260409020805460ff19169055565b6065548151602083015160c084015160e0850151610100860151604051631fcc63c160e31b8152600481019590955260248501939093526044840191909152606483015260848201526001600160a01b039091169063fe631e089060a40160006040518083038186803b15801562000e6457600080fd5b505afa15801562000e79573d6000803e3d6000fd5b505050506068600062000e893390565b6001600160a01b0316815260208101919091526040016000205460ff1662000fb157606560009054906101000a90046001600160a01b03166001600160a01b0316636a1b7ecc6040518163ffffffff1660e01b8152600401602060405180830381865afa15801562000eff573d6000803e3d6000fd5b505050506040513d601f19601f8201168201806040525081019062000f25919062001f62565b341462000f755760405162461bcd60e51b815260206004820152601960248201527f4e6f20706179696e6720746865206c697374696e67206665650000000000000060448201526064016200056d565b6066546040516001600160a01b03909116903480156108fc02916000818181858888f1935050505015801562000faf573d6000803e3d6000fd5b505b60655460408051635d78b88b60e11b815290516000926001600160a01b03169163baf171169160048083019260209291908290030181865afa15801562000ffc573d6000803e3d6000fd5b505050506040513d601f19601f8201168201806040525081019062001022919062001f92565b606560009054906101000a90046001600160a01b03166001600160a01b0316633e47158c6040518163ffffffff1660e01b8152600401602060405180830381865afa15801562001076573d6000803e3d6000fd5b505050506040513d601f19601f820116820180604052508101906200109c919062001f92565b6040805160008152602081019182905290620010b89062001c55565b620010c6939291906200200f565b604051809103906000f080158015620010e3573d6000803e3d6000fd5b509050806001600160a01b03166382fe3aca30620011096033546001600160a01b031690565b338888606560009054906101000a90046001600160a01b03166001600160a01b0316631cb858186040518163ffffffff1660e01b8152600401602060405180830381865afa15801562001160573d6000803e3d6000fd5b505050506040513d601f19601f8201168201806040525081019062001186919062001f92565b606560009054906101000a90046001600160a01b03166001600160a01b0316630238c6da6040518163ffffffff1660e01b8152600401602060405180830381865afa158015620011da573d6000803e3d6000fd5b505050506040513d601f19601f8201168201806040525081019062001200919062001f92565b606560009054906101000a90046001600160a01b03166001600160a01b0316633e47158c6040518163ffffffff1660e01b8152600401602060405180830381865afa15801562001254573d6000803e3d6000fd5b505050506040513d601f19601f820116820180604052508101906200127a919062001f92565b8b6101800151606560009054906101000a90046001600160a01b03166001600160a01b03166361d027b36040518163ffffffff1660e01b8152600401602060405180830381865afa158015620012d4573d6000803e3d6000fd5b505050506040513d601f19601f82011682018060405250810190620012fa919062001f92565b6040518b63ffffffff1660e01b8152600401620013219a9998979695949392919062002046565b600060405180830381600087803b1580156200133c57600080fd5b505af115801562001351573d6000803e3d6000fd5b5050604051631dd62ef760e01b81526001600160a01b0384169250631dd62ef7915062001383908590600401620020c1565b600060405180830381600087803b1580156200139e57600080fd5b505af1158015620013b3573d6000803e3d6000fd5b505050508060676000620013c43390565b6001600160a01b039081168252602082019290925260400160002080546001600160a01b03191692909116919091179055620014733330836001600160a01b0316637e1c0c096040518163ffffffff1660e01b8152600401602060405180830381865afa1580156200143a573d6000803e3d6000fd5b505050506040513d601f19601f8201168201806040525081019062001460919062001f62565b6001600160a01b0388169291906200178d565b6040516370a0823160e01b8152306004820152620014f79082906001600160a01b038716906370a0823190602401602060405180830381865afa158015620014bf573d6000803e3d6000fd5b505050506040513d601f19601f82011682018060405250810190620014e5919062001f62565b6001600160a01b03871691906200182d565b33600081815260686020526040808220805460ff19169055516001600160a01b03841692917f53991c31dcdb7ed7c47ebe897391f23c41bc0b464c3f1a0a8e3256e90b6edb5591a350505050565b6065546040805163e6fd885f60e01b815290516000926001600160a01b03169163e6fd885f9160048083019260209291908290030181865afa15801562000976573d6000803e3d6000fd5b6033546001600160a01b03163314620015ec5760405162461bcd60e51b815260206004820181905260248201527f4f776e61626c653a2063616c6c6572206973206e6f7420746865206f776e657260448201526064016200056d565b6001600160a01b0381166200166a5760405162461bcd60e51b815260206004820152602660248201527f4f776e61626c653a206e6577206f776e657220697320746865207a65726f206160448201527f646472657373000000000000000000000000000000000000000000000000000060648201526084016200056d565b620005f5815b603380546001600160a01b038381166001600160a01b0319831681179093556040519116919082907f8be0079c531659141344cd1fd0a4f28419497f9722a3daafe3b4186f6b6457e090600090a35050565b600054610100900460ff1680620016dc575060005460ff16155b620017415760405162461bcd60e51b815260206004820152602e60248201527f496e697469616c697a61626c653a20636f6e747261637420697320616c72656160448201526d191e481a5b9a5d1a585b1a5e995960921b60648201526084016200056d565b600054610100900460ff1615801562001764576000805461ffff19166101011790555b6200176e62001864565b620017786200191a565b8015620005f5576000805461ff001916905550565b6040516001600160a01b0380851660248301528316604482015260648101829052620018279085906323b872dd60e01b906084015b60408051601f198184030181529190526020810180517bffffffffffffffffffffffffffffffffffffffffffffffffffffffff167fffffffff0000000000000000000000000000000000000000000000000000000090931692909217909152620019c7565b50505050565b6040516001600160a01b0383166024820152604481018290526200185f90849063a9059cbb60e01b90606401620017c2565b505050565b600054610100900460ff16806200187e575060005460ff16155b620018e35760405162461bcd60e51b815260206004820152602e60248201527f496e697469616c697a61626c653a20636f6e747261637420697320616c72656160448201526d191e481a5b9a5d1a585b1a5e995960921b60648201526084016200056d565b600054610100900460ff1615801562001778576000805461ffff19166101011790558015620005f5576000805461ff001916905550565b600054610100900460ff168062001934575060005460ff16155b620019995760405162461bcd60e51b815260206004820152602e60248201527f496e697469616c697a61626c653a20636f6e747261637420697320616c72656160448201526d191e481a5b9a5d1a585b1a5e995960921b60648201526084016200056d565b600054610100900460ff16158015620019bc576000805461ffff19166101011790555b620017783362001670565b600062001a1e826040518060400160405280602081526020017f5361666545524332303a206c6f772d6c6576656c2063616c6c206661696c6564815250856001600160a01b031662001ab39092919063ffffffff16565b8051909150156200185f578080602001905181019062001a3f919062001f42565b6200185f5760405162461bcd60e51b815260206004820152602a60248201527f5361666545524332303a204552433230206f7065726174696f6e20646964206e60448201527f6f7420737563636565640000000000000000000000000000000000000000000060648201526084016200056d565b606062001ac4848460008562001ace565b90505b9392505050565b60608247101562001b485760405162461bcd60e51b815260206004820152602660248201527f416464726573733a20696e73756666696369656e742062616c616e636520666f60448201527f722063616c6c000000000000000000000000000000000000000000000000000060648201526084016200056d565b843b62001b985760405162461bcd60e51b815260206004820152601d60248201527f416464726573733a2063616c6c20746f206e6f6e2d636f6e747261637400000060448201526064016200056d565b600080866001600160a01b0316858760405162001bb691906200218e565b60006040518083038185875af1925050503d806000811462001bf5576040519150601f19603f3d011682016040523d82523d6000602084013e62001bfa565b606091505b509150915062001c0c82828662001c17565b979650505050505050565b6060831562001c2857508162001ac7565b82511562001c395782518084602001fd5b8160405162461bcd60e51b81526004016200056d9190620021ac565b610f9f80620021c283390190565b60006020828403121562001c7657600080fd5b5035919050565b6001600160a01b0381168114620005f557600080fd5b60006020828403121562001ca657600080fd5b813562001ac78162001c7d565b60008060006060848603121562001cc957600080fd5b833562001cd68162001c7d565b95602085013595506040909401359392505050565b60006020828403121562001cfe57600080fd5b81356005811062001ac757600080fd5b634e487b7160e01b600052604160045260246000fd5b6040516101a0810167ffffffffffffffff8111828210171562001d4b5762001d4b62001d0e565b60405290565b8015158114620005f557600080fd5b803562001d6d8162001d51565b919050565b600082601f83011262001d8457600080fd5b813567ffffffffffffffff8082111562001da25762001da262001d0e565b604051601f8301601f19908116603f0116810190828211818310171562001dcd5762001dcd62001d0e565b8160405283815286602085880101111562001de757600080fd5b836020870160208301376000602085830101528094505050505092915050565b60008060006060848603121562001e1d57600080fd5b833562001e2a8162001c7d565b9250602084013562001e3c8162001c7d565b9150604084013567ffffffffffffffff8082111562001e5a57600080fd5b908501906101a0828803121562001e7057600080fd5b62001e7a62001d24565b823581526020830135602082015260408301356040820152606083013560608201526080830135608082015260a083013560a082015260c083013560c082015260e083013560e082015261010080840135818301525061012062001ee081850162001d60565b9082015261014062001ef484820162001d60565b9082015261016062001f0884820162001d60565b90820152610180838101358381111562001f2157600080fd5b62001f2f8a82870162001d72565b8284015250508093505050509250925092565b60006020828403121562001f5557600080fd5b815162001ac78162001d51565b60006020828403121562001f7557600080fd5b5051919050565b634e487b7160e01b600052602160045260246000fd5b60006020828403121562001fa557600080fd5b815162001ac78162001c7d565b60005b8381101562001fcf57818101518382015260200162001fb5565b83811115620018275750506000910152565b6000815180845262001ffb81602086016020860162001fb2565b601f01601f19169290920160200192915050565b60006001600160a01b038086168352808516602084015250606060408301526200203d606083018462001fe1565b95945050505050565b60006101406001600160a01b03808e168452808d166020850152808c166040850152808b166060850152808a16608085015280891660a085015280881660c085015280871660e085015281610100850152620020a58285018762001fe1565b925080851661012085015250509b9a5050505050505050505050565b6020815281516020820152602082015160408201526040820151606082015260608201516080820152608082015160a082015260a082015160c082015260c082015160e0820152600060e08301516101008181850152808501519150506101208181850152808501519150506101406200213e8185018315159052565b8401519050610160620021548482018315159052565b84015190506101806200216a8482018315159052565b8401516101a0848101529050620021866101c084018262001fe1565b949350505050565b60008251620021a281846020870162001fb2565b9190910192915050565b60208152600062001ac7602083018462001fe156fe608060405260405162000f9f38038062000f9f833981016040819052620000269162000507565b82816200005560017f360894a13ba1a3210667c828492db98dca3e2076cc3735a920a3ca505d382bbd620005e7565b60008051602062000f58833981519152146200007557620000756200060d565b6200008382826000620000e7565b50620000b3905060017fb53127684a568b3173ae13b9f8a6016e243e63b6e8ee1178d6a717850b5d6104620005e7565b60008051602062000f3883398151915214620000d357620000d36200060d565b620000de8262000124565b50505062000676565b620000f2836200017f565b600082511180620001005750805b156200011f576200011d8383620001c160201b620002701760201c565b505b505050565b7f7e644d79422f17c01e4894b5f4f588d331ebfa28653d42ae832dc59e38c9798f6200014f620001f0565b604080516001600160a01b03928316815291841660208301520160405180910390a16200017c8162000229565b50565b6200018a81620002de565b6040516001600160a01b038216907fbc7cd75a20ee27fd9adebab32041f755214dbc6bffa90cc0225b39da2e5c2d3b90600090a250565b6060620001e9838360405180606001604052806027815260200162000f786027913962000381565b9392505050565b60006200021a60008051602062000f3883398151915260001b6200045e60201b620002181760201c565b546001600160a01b0316919050565b6001600160a01b038116620002945760405162461bcd60e51b815260206004820152602660248201527f455243313936373a206e65772061646d696e20697320746865207a65726f206160448201526564647265737360d01b60648201526084015b60405180910390fd5b80620002bd60008051602062000f3883398151915260001b6200045e60201b620002181760201c565b80546001600160a01b0319166001600160a01b039290921691909117905550565b620002f4816200046160201b6200029c1760201c565b620003585760405162461bcd60e51b815260206004820152602d60248201527f455243313936373a206e657720696d706c656d656e746174696f6e206973206e60448201526c1bdd08184818dbdb9d1c9858dd609a1b60648201526084016200028b565b80620002bd60008051602062000f5883398151915260001b6200045e60201b620002181760201c565b6060833b620003e25760405162461bcd60e51b815260206004820152602660248201527f416464726573733a2064656c65676174652063616c6c20746f206e6f6e2d636f6044820152651b9d1c9858dd60d21b60648201526084016200028b565b600080856001600160a01b031685604051620003ff919062000623565b600060405180830381855af49150503d80600081146200043c576040519150601f19603f3d011682016040523d82523d6000602084013e62000441565b606091505b5090925090506200045482828662000467565b9695505050505050565b90565b3b151590565b6060831562000478575081620001e9565b825115620004895782518084602001fd5b8160405162461bcd60e51b81526004016200028b919062000641565b80516001600160a01b0381168114620004bd57600080fd5b919050565b634e487b7160e01b600052604160045260246000fd5b60005b83811015620004f5578181015183820152602001620004db565b838111156200011d5750506000910152565b6000806000606084860312156200051d57600080fd5b6200052884620004a5565b92506200053860208501620004a5565b60408501519092506001600160401b03808211156200055657600080fd5b818601915086601f8301126200056b57600080fd5b815181811115620005805762000580620004c2565b604051601f8201601f19908116603f01168101908382118183101715620005ab57620005ab620004c2565b81604052828152896020848701011115620005c557600080fd5b620005d8836020830160208801620004d8565b80955050505050509250925092565b6000828210156200060857634e487b7160e01b600052601160045260246000fd5b500390565b634e487b7160e01b600052600160045260246000fd5b6000825162000637818460208701620004d8565b9190910192915050565b602081526000825180602084015262000662816040850160208701620004d8565b601f01601f19169190910160400192915050565b6108b280620006866000396000f3fe60806040526004361061005e5760003560e01c80635c60da1b116100435780635c60da1b146100a85780638f283970146100d9578063f851a440146100f95761006d565b80633659cfe6146100755780634f1ef286146100955761006d565b3661006d5761006b61010e565b005b61006b61010e565b34801561008157600080fd5b5061006b61009036600461073c565b610128565b61006b6100a3366004610757565b61016f565b3480156100b457600080fd5b506100bd6101e0565b6040516001600160a01b03909116815260200160405180910390f35b3480156100e557600080fd5b5061006b6100f436600461073c565b61021b565b34801561010557600080fd5b506100bd610245565b6101166102a2565b610126610121610341565b61034b565b565b61013061036f565b6001600160a01b0316336001600160a01b0316141561016757610164816040518060200160405280600081525060006103a2565b50565b61016461010e565b61017761036f565b6001600160a01b0316336001600160a01b031614156101d8576101d38383838080601f016020809104026020016040519081016040528093929190818152602001838380828437600092019190915250600192506103a2915050565b505050565b6101d361010e565b60006101ea61036f565b6001600160a01b0316336001600160a01b031614156102105761020b610341565b905090565b61021861010e565b90565b61022361036f565b6001600160a01b0316336001600160a01b0316141561016757610164816103cd565b600061024f61036f565b6001600160a01b0316336001600160a01b031614156102105761020b61036f565b6060610295838360405180606001604052806027815260200161085660279139610421565b9392505050565b3b151590565b6102aa61036f565b6001600160a01b0316336001600160a01b031614156101265760405162461bcd60e51b815260206004820152604260248201527f5472616e73706172656e745570677261646561626c6550726f78793a2061646d60448201527f696e2063616e6e6f742066616c6c6261636b20746f2070726f78792074617267606482015261195d60f21b608482015260a4015b60405180910390fd5b600061020b61050c565b3660008037600080366000845af43d6000803e80801561036a573d6000f35b3d6000fd5b60007fb53127684a568b3173ae13b9f8a6016e243e63b6e8ee1178d6a717850b5d61035b546001600160a01b0316919050565b6103ab83610534565b6000825111806103b85750805b156101d3576103c78383610270565b50505050565b7f7e644d79422f17c01e4894b5f4f588d331ebfa28653d42ae832dc59e38c9798f6103f661036f565b604080516001600160a01b03928316815291841660208301520160405180910390a161016481610574565b6060833b6104975760405162461bcd60e51b815260206004820152602660248201527f416464726573733a2064656c65676174652063616c6c20746f206e6f6e2d636f60448201527f6e747261637400000000000000000000000000000000000000000000000000006064820152608401610338565b600080856001600160a01b0316856040516104b29190610806565b600060405180830381855af49150503d80600081146104ed576040519150601f19603f3d011682016040523d82523d6000602084013e6104f2565b606091505b509150915061050282828661064c565b9695505050505050565b60007f360894a13ba1a3210667c828492db98dca3e2076cc3735a920a3ca505d382bbc610393565b61053d81610685565b6040516001600160a01b038216907fbc7cd75a20ee27fd9adebab32041f755214dbc6bffa90cc0225b39da2e5c2d3b90600090a250565b6001600160a01b0381166105f05760405162461bcd60e51b815260206004820152602660248201527f455243313936373a206e65772061646d696e20697320746865207a65726f206160448201527f64647265737300000000000000000000000000000000000000000000000000006064820152608401610338565b807fb53127684a568b3173ae13b9f8a6016e243e63b6e8ee1178d6a717850b5d61035b80547fffffffffffffffffffffffff0000000000000000000000000000000000000000166001600160a01b039290921691909117905550565b6060831561065b575081610295565b82511561066b5782518084602001fd5b8160405162461bcd60e51b81526004016103389190610822565b803b6106f95760405162461bcd60e51b815260206004820152602d60248201527f455243313936373a206e657720696d706c656d656e746174696f6e206973206e60448201527f6f74206120636f6e7472616374000000000000000000000000000000000000006064820152608401610338565b807f360894a13ba1a3210667c828492db98dca3e2076cc3735a920a3ca505d382bbc610613565b80356001600160a01b038116811461073757600080fd5b919050565b60006020828403121561074e57600080fd5b61029582610720565b60008060006040848603121561076c57600080fd5b61077584610720565b9250602084013567ffffffffffffffff8082111561079257600080fd5b818601915086601f8301126107a657600080fd5b8135818111156107b557600080fd5b8760208285010111156107c757600080fd5b6020830194508093505050509250925092565b60005b838110156107f55781810151838201526020016107dd565b838111156103c75750506000910152565b600082516108188184602087016107da565b9190910192915050565b60208152600082518060208401526108418160408501602087016107da565b601f01601f1916919091016040019291505056fe416464726573733a206c6f772d6c6576656c2064656c65676174652063616c6c206661696c6564a26469706673582212204ef1142f9f0499ce6511923c35ef8d04a0c6d037c02906896aa0b903bafc017164736f6c634300080b0033b53127684a568b3173ae13b9f8a6016e243e63b6e8ee1178d6a717850b5d6103360894a13ba1a3210667c828492db98dca3e2076cc3735a920a3ca505d382bbc416464726573733a206c6f772d6c6576656c2064656c65676174652063616c6c206661696c6564a264697066735822122074ef936614b6a334922a79a88c5f611139ecdeee7f1918f89ea83788e92de95f64736f6c634300080b0033",
  "devdoc": {
    "kind": "dev",
    "methods": {
      "owner()": {
        "details": "Returns the address of the current owner."
      },
      "renounceOwnership()": {
        "details": "Leaves the contract without owner. It will not be possible to call `onlyOwner` functions anymore. Can only be called by the current owner. NOTE: Renouncing ownership will leave the contract without an owner, thereby removing any functionality that is only available to the owner."
      },
      "transferOwnership(address)": {
        "details": "Transfers ownership of the contract to a new account (`newOwner`). Can only be called by the current owner."
      }
    },
    "version": 1
  },
  "userdoc": {
    "events": {
      "SaleCreated(address,address)": {
        "notice": "Emitted when a new sale is created"
      },
      "StatusChanged(address,uint8)": {
        "notice": "Emitted when a new sale is created"
      }
    },
    "kind": "user",
    "methods": {
      "earlyWithdrawPenalty()": {
        "notice": "Returns the early withdrawal penalty"
      },
      "feePaid(address)": {
        "notice": "A mapping of wallet addresses to a flag for whether they paid the fee"
      },
      "getSale()": {
        "notice": "Returns the sale of the caller"
      },
      "getSaleByOwner(address)": {
        "notice": "Returns the sale of a given owner"
      },
      "initialize(address)": {
        "notice": "The initializer for the router"
      },
      "launched(address,uint256,uint256)": {
        "notice": "To be called by a sales \"finalize()\" function only"
      },
      "launchingFeeInTokenA()": {
        "notice": "Returns the launching fee in the partner token"
      },
      "launchingFeeInTokenB()": {
        "notice": "Returns the launching fee in the raised token"
      },
      "listingFee()": {
        "notice": "Returns the listing fee"
      },
      "onStatusChange(uint8)": {
        "notice": "Callback from reflex sale for event emission"
      },
      "payFee()": {
        "notice": "Pay the fee in BNB"
      },
      "reflexSettings()": {
        "notice": "Reflex Settings"
      },
      "resetFee(address)": {
        "notice": "Reset fee paid status of an account"
      },
      "sales(address)": {
        "notice": "A mapping of sale owners to the sales"
      },
      "setSaleUpdateApprove(address)": {
        "notice": "Approve the sale param update of the runner's sale"
      },
      "treasury()": {
        "notice": "Treasury address"
      },
      "withdrawBNB(uint256)": {
        "notice": "Withdraws BNB from the contract"
      }
    },
    "version": 1
  },
  "storageLayout": {
    "storage": [
      {
        "astId": 130,
        "contract": "contracts/ReflexRouter01.sol:ReflexRouter01",
        "label": "_initialized",
        "offset": 0,
        "slot": "0",
        "type": "t_bool"
      },
      {
        "astId": 133,
        "contract": "contracts/ReflexRouter01.sol:ReflexRouter01",
        "label": "_initializing",
        "offset": 1,
        "slot": "0",
        "type": "t_bool"
      },
      {
        "astId": 758,
        "contract": "contracts/ReflexRouter01.sol:ReflexRouter01",
        "label": "__gap",
        "offset": 0,
        "slot": "1",
        "type": "t_array(t_uint256)50_storage"
      },
      {
        "astId": 10,
        "contract": "contracts/ReflexRouter01.sol:ReflexRouter01",
        "label": "_owner",
        "offset": 0,
        "slot": "51",
        "type": "t_address"
      },
      {
        "astId": 123,
        "contract": "contracts/ReflexRouter01.sol:ReflexRouter01",
        "label": "__gap",
        "offset": 0,
        "slot": "52",
        "type": "t_array(t_uint256)49_storage"
      },
      {
        "astId": 2863,
        "contract": "contracts/ReflexRouter01.sol:ReflexRouter01",
        "label": "reflexSettings",
        "offset": 0,
        "slot": "101",
        "type": "t_contract(IReflexSettings)6093"
      },
      {
        "astId": 2866,
        "contract": "contracts/ReflexRouter01.sol:ReflexRouter01",
        "label": "treasury",
        "offset": 0,
        "slot": "102",
        "type": "t_address"
      },
      {
        "astId": 2872,
        "contract": "contracts/ReflexRouter01.sol:ReflexRouter01",
        "label": "sales",
        "offset": 0,
        "slot": "103",
        "type": "t_mapping(t_address,t_contract(ReflexSale01)5091)"
      },
      {
        "astId": 2877,
        "contract": "contracts/ReflexRouter01.sol:ReflexRouter01",
        "label": "feePaid",
        "offset": 0,
        "slot": "104",
        "type": "t_mapping(t_address,t_bool)"
      }
    ],
    "types": {
      "t_address": {
        "encoding": "inplace",
        "label": "address",
        "numberOfBytes": "20"
      },
      "t_array(t_uint256)49_storage": {
        "base": "t_uint256",
        "encoding": "inplace",
        "label": "uint256[49]",
        "numberOfBytes": "1568"
      },
      "t_array(t_uint256)50_storage": {
        "base": "t_uint256",
        "encoding": "inplace",
        "label": "uint256[50]",
        "numberOfBytes": "1600"
      },
      "t_bool": {
        "encoding": "inplace",
        "label": "bool",
        "numberOfBytes": "1"
      },
      "t_contract(IReflexSettings)6093": {
        "encoding": "inplace",
        "label": "contract IReflexSettings",
        "numberOfBytes": "20"
      },
      "t_contract(ReflexSale01)5091": {
        "encoding": "inplace",
        "label": "contract ReflexSale01",
        "numberOfBytes": "20"
      },
      "t_mapping(t_address,t_bool)": {
        "encoding": "mapping",
        "key": "t_address",
        "label": "mapping(address => bool)",
        "numberOfBytes": "32",
        "value": "t_bool"
      },
      "t_mapping(t_address,t_contract(ReflexSale01)5091)": {
        "encoding": "mapping",
        "key": "t_address",
        "label": "mapping(address => contract ReflexSale01)",
        "numberOfBytes": "32",
        "value": "t_contract(ReflexSale01)5091"
      },
      "t_uint256": {
        "encoding": "inplace",
        "label": "uint256",
        "numberOfBytes": "32"
      }
    }
  }
}